{
  "_format": "hh-sol-artifact-1",
  "contractName": "ConsentToken",
  "sourceName": "contracts/ConsentToken.sol",
  "abi": [
    {
      "inputs": [],
      "stateMutability": "nonpayable",
      "type": "constructor"
    },
    {
      "anonymous": false,
      "inputs": [
        {
          "indexed": true,
          "internalType": "address",
          "name": "owner",
          "type": "address"
        },
        {
          "indexed": true,
          "internalType": "address",
          "name": "approved",
          "type": "address"
        },
        {
          "indexed": true,
          "internalType": "uint256",
          "name": "tokenId",
          "type": "uint256"
        }
      ],
      "name": "Approval",
      "type": "event"
    },
    {
      "anonymous": false,
      "inputs": [
        {
          "indexed": true,
          "internalType": "address",
          "name": "owner",
          "type": "address"
        },
        {
          "indexed": true,
          "internalType": "address",
          "name": "operator",
          "type": "address"
        },
        {
          "indexed": false,
          "internalType": "bool",
          "name": "approved",
          "type": "bool"
        }
      ],
      "name": "ApprovalForAll",
      "type": "event"
    },
    {
      "anonymous": false,
      "inputs": [
        {
          "indexed": true,
          "internalType": "uint256",
          "name": "tokenId",
          "type": "uint256"
        },
        {
          "indexed": true,
          "internalType": "address",
          "name": "issuer",
          "type": "address"
        },
        {
          "indexed": true,
          "internalType": "address",
          "name": "recipient",
          "type": "address"
        },
        {
          "indexed": false,
          "internalType": "string",
          "name": "purpose",
          "type": "string"
        },
        {
          "indexed": false,
          "internalType": "uint256",
          "name": "expiryDate",
          "type": "uint256"
        },
        {
          "indexed": false,
          "internalType": "string",
          "name": "website",
          "type": "string"
        },
        {
          "indexed": false,
          "internalType": "string",
          "name": "dataFields",
          "type": "string"
        }
      ],
      "name": "ConsentMinted",
      "type": "event"
    },
    {
      "anonymous": false,
      "inputs": [
        {
          "indexed": true,
          "internalType": "uint256",
          "name": "tokenId",
          "type": "uint256"
        },
        {
          "indexed": true,
          "internalType": "address",
          "name": "issuer",
          "type": "address"
        }
      ],
      "name": "ConsentRevoked",
      "type": "event"
    },
    {
      "anonymous": false,
      "inputs": [
        {
          "indexed": true,
          "internalType": "address",
          "name": "previousOwner",
          "type": "address"
        },
        {
          "indexed": true,
          "internalType": "address",
          "name": "newOwner",
          "type": "address"
        }
      ],
      "name": "OwnershipTransferred",
      "type": "event"
    },
    {
      "anonymous": false,
      "inputs": [
        {
          "indexed": true,
          "internalType": "address",
          "name": "from",
          "type": "address"
        },
        {
          "indexed": true,
          "internalType": "address",
          "name": "to",
          "type": "address"
        },
        {
          "indexed": true,
          "internalType": "uint256",
          "name": "tokenId",
          "type": "uint256"
        }
      ],
      "name": "Transfer",
      "type": "event"
    },
    {
      "inputs": [
        {
          "internalType": "address",
          "name": "to",
          "type": "address"
        },
        {
          "internalType": "uint256",
          "name": "tokenId",
          "type": "uint256"
        }
      ],
      "name": "approve",
      "outputs": [],
      "stateMutability": "nonpayable",
      "type": "function"
    },
    {
      "inputs": [
        {
          "internalType": "address",
          "name": "owner",
          "type": "address"
        }
      ],
      "name": "balanceOf",
      "outputs": [
        {
          "internalType": "uint256",
          "name": "",
          "type": "uint256"
        }
      ],
      "stateMutability": "view",
      "type": "function"
    },
    {
      "inputs": [
        {
          "internalType": "uint256",
          "name": "",
          "type": "uint256"
        }
      ],
      "name": "consentData",
      "outputs": [
        {
          "internalType": "address",
          "name": "recipient",
          "type": "address"
        },
        {
          "internalType": "string",
          "name": "purpose",
          "type": "string"
        },
        {
          "internalType": "uint256",
          "name": "expiryDate",
          "type": "uint256"
        },
        {
          "internalType": "bool",
          "name": "isRevoked",
          "type": "bool"
        },
        {
          "internalType": "string",
          "name": "website",
          "type": "string"
        },
        {
          "internalType": "string",
          "name": "dataFields",
          "type": "string"
        }
      ],
      "stateMutability": "view",
      "type": "function"
    },
    {
      "inputs": [
        {
          "internalType": "uint256",
          "name": "tokenId",
          "type": "uint256"
        }
      ],
      "name": "getApproved",
      "outputs": [
        {
          "internalType": "address",
          "name": "",
          "type": "address"
        }
      ],
      "stateMutability": "view",
      "type": "function"
    },
    {
      "inputs": [
        {
          "internalType": "address",
          "name": "owner",
          "type": "address"
        }
      ],
      "name": "getMyConsents",
      "outputs": [
        {
          "components": [
            {
              "internalType": "address",
              "name": "recipient",
              "type": "address"
            },
            {
              "internalType": "string",
              "name": "purpose",
              "type": "string"
            },
            {
              "internalType": "uint256",
              "name": "expiryDate",
              "type": "uint256"
            },
            {
              "internalType": "bool",
              "name": "isRevoked",
              "type": "bool"
            },
            {
              "internalType": "string",
              "name": "website",
              "type": "string"
            },
            {
              "internalType": "string",
              "name": "dataFields",
              "type": "string"
            }
          ],
          "internalType": "struct ConsentToken.ConsentData[]",
          "name": "",
          "type": "tuple[]"
        }
      ],
      "stateMutability": "view",
      "type": "function"
    },
    {
      "inputs": [
        {
          "internalType": "address",
          "name": "owner",
          "type": "address"
        }
      ],
      "name": "getMyConsentsWithIds",
      "outputs": [
        {
          "internalType": "uint256[]",
          "name": "",
          "type": "uint256[]"
        },
        {
          "components": [
            {
              "internalType": "address",
              "name": "recipient",
              "type": "address"
            },
            {
              "internalType": "string",
              "name": "purpose",
              "type": "string"
            },
            {
              "internalType": "uint256",
              "name": "expiryDate",
              "type": "uint256"
            },
            {
              "internalType": "bool",
              "name": "isRevoked",
              "type": "bool"
            },
            {
              "internalType": "string",
              "name": "website",
              "type": "string"
            },
            {
              "internalType": "string",
              "name": "dataFields",
              "type": "string"
            }
          ],
          "internalType": "struct ConsentToken.ConsentData[]",
          "name": "",
          "type": "tuple[]"
        }
      ],
      "stateMutability": "view",
      "type": "function"
    },
    {
      "inputs": [
        {
          "internalType": "address",
          "name": "owner",
          "type": "address"
        },
        {
          "internalType": "address",
          "name": "operator",
          "type": "address"
        }
      ],
      "name": "isApprovedForAll",
      "outputs": [
        {
          "internalType": "bool",
          "name": "",
          "type": "bool"
        }
      ],
      "stateMutability": "view",
      "type": "function"
    },
    {
      "inputs": [
        {
          "internalType": "address",
          "name": "recipient",
          "type": "address"
        },
        {
          "internalType": "string",
          "name": "purpose",
          "type": "string"
        },
        {
          "internalType": "uint256",
          "name": "expiryDate",
          "type": "uint256"
        },
        {
          "internalType": "string",
          "name": "website",
          "type": "string"
        },
        {
          "internalType": "string",
          "name": "dataFields",
          "type": "string"
        }
      ],
      "name": "mintConsent",
      "outputs": [],
      "stateMutability": "nonpayable",
      "type": "function"
    },
    {
      "inputs": [],
      "name": "name",
      "outputs": [
        {
          "internalType": "string",
          "name": "",
          "type": "string"
        }
      ],
      "stateMutability": "view",
      "type": "function"
    },
    {
      "inputs": [],
      "name": "owner",
      "outputs": [
        {
          "internalType": "address",
          "name": "",
          "type": "address"
        }
      ],
      "stateMutability": "view",
      "type": "function"
    },
    {
      "inputs": [
        {
          "internalType": "uint256",
          "name": "tokenId",
          "type": "uint256"
        }
      ],
      "name": "ownerOf",
      "outputs": [
        {
          "internalType": "address",
          "name": "",
          "type": "address"
        }
      ],
      "stateMutability": "view",
      "type": "function"
    },
    {
      "inputs": [],
      "name": "renounceOwnership",
      "outputs": [],
      "stateMutability": "nonpayable",
      "type": "function"
    },
    {
      "inputs": [
        {
          "internalType": "uint256",
          "name": "tokenId",
          "type": "uint256"
        }
      ],
      "name": "revokeConsent",
      "outputs": [],
      "stateMutability": "nonpayable",
      "type": "function"
    },
    {
      "inputs": [
        {
          "internalType": "address",
          "name": "from",
          "type": "address"
        },
        {
          "internalType": "address",
          "name": "to",
          "type": "address"
        },
        {
          "internalType": "uint256",
          "name": "tokenId",
          "type": "uint256"
        }
      ],
      "name": "safeTransferFrom",
      "outputs": [],
      "stateMutability": "nonpayable",
      "type": "function"
    },
    {
      "inputs": [
        {
          "internalType": "address",
          "name": "from",
          "type": "address"
        },
        {
          "internalType": "address",
          "name": "to",
          "type": "address"
        },
        {
          "internalType": "uint256",
          "name": "tokenId",
          "type": "uint256"
        },
        {
          "internalType": "bytes",
          "name": "data",
          "type": "bytes"
        }
      ],
      "name": "safeTransferFrom",
      "outputs": [],
      "stateMutability": "nonpayable",
      "type": "function"
    },
    {
      "inputs": [
        {
          "internalType": "address",
          "name": "operator",
          "type": "address"
        },
        {
          "internalType": "bool",
          "name": "approved",
          "type": "bool"
        }
      ],
      "name": "setApprovalForAll",
      "outputs": [],
      "stateMutability": "nonpayable",
      "type": "function"
    },
    {
      "inputs": [
        {
          "internalType": "bytes4",
          "name": "interfaceId",
          "type": "bytes4"
        }
      ],
      "name": "supportsInterface",
      "outputs": [
        {
          "internalType": "bool",
          "name": "",
          "type": "bool"
        }
      ],
      "stateMutability": "view",
      "type": "function"
    },
    {
      "inputs": [],
      "name": "symbol",
      "outputs": [
        {
          "internalType": "string",
          "name": "",
          "type": "string"
        }
      ],
      "stateMutability": "view",
      "type": "function"
    },
    {
      "inputs": [
        {
          "internalType": "uint256",
          "name": "tokenId",
          "type": "uint256"
        }
      ],
      "name": "tokenURI",
      "outputs": [
        {
          "internalType": "string",
          "name": "",
          "type": "string"
        }
      ],
      "stateMutability": "view",
      "type": "function"
    },
    {
      "inputs": [
        {
          "internalType": "address",
          "name": "from",
          "type": "address"
        },
        {
          "internalType": "address",
          "name": "to",
          "type": "address"
        },
        {
          "internalType": "uint256",
          "name": "tokenId",
          "type": "uint256"
        }
      ],
      "name": "transferFrom",
      "outputs": [],
      "stateMutability": "nonpayable",
      "type": "function"
    },
    {
      "inputs": [
        {
          "internalType": "address",
          "name": "newOwner",
          "type": "address"
        }
      ],
      "name": "transferOwnership",
      "outputs": [],
      "stateMutability": "nonpayable",
      "type": "function"
    },
    {
      "inputs": [
        {
          "internalType": "address",
          "name": "",
          "type": "address"
        },
        {
          "internalType": "uint256",
          "name": "",
          "type": "uint256"
        }
      ],
      "name": "userTokens",
      "outputs": [
        {
          "internalType": "uint256",
          "name": "",
          "type": "uint256"
        }
      ],
      "stateMutability": "view",
      "type": "function"
    }
  ],
  "bytecode": "0x60806040523480156200001157600080fd5b506040518060400160405280600d81526020017f436f6e73656e7420546f6b656e000000000000000000000000000000000000008152506040518060400160405280600781526020017f434f4e53454e540000000000000000000000000000000000000000000000000081525081600090816200008f919062000412565b508060019081620000a1919062000412565b505050620000c4620000b8620000ca60201b60201c565b620000d260201b60201c565b620004f9565b600033905090565b6000600660009054906101000a900473ffffffffffffffffffffffffffffffffffffffff16905081600660006101000a81548173ffffffffffffffffffffffffffffffffffffffff021916908373ffffffffffffffffffffffffffffffffffffffff1602179055508173ffffffffffffffffffffffffffffffffffffffff168173ffffffffffffffffffffffffffffffffffffffff167f8be0079c531659141344cd1fd0a4f28419497f9722a3daafe3b4186f6b6457e060405160405180910390a35050565b600081519050919050565b7f4e487b7100000000000000000000000000000000000000000000000000000000600052604160045260246000fd5b7f4e487b7100000000000000000000000000000000000000000000000000000000600052602260045260246000fd5b600060028204905060018216806200021a57607f821691505b60208210810362000230576200022f620001d2565b5b50919050565b60008190508160005260206000209050919050565b60006020601f8301049050919050565b600082821b905092915050565b6000600883026200029a7fffffffffffffffffffffffffffffffffffffffffffffffffffffffffffffffff826200025b565b620002a686836200025b565b95508019841693508086168417925050509392505050565b6000819050919050565b6000819050919050565b6000620002f3620002ed620002e784620002be565b620002c8565b620002be565b9050919050565b6000819050919050565b6200030f83620002d2565b620003276200031e82620002fa565b84845462000268565b825550505050565b600090565b6200033e6200032f565b6200034b81848462000304565b505050565b5b8181101562000373576200036760008262000334565b60018101905062000351565b5050565b601f821115620003c2576200038c8162000236565b62000397846200024b565b81016020851015620003a7578190505b620003bf620003b6856200024b565b83018262000350565b50505b505050565b600082821c905092915050565b6000620003e760001984600802620003c7565b1980831691505092915050565b6000620004028383620003d4565b9150826002028217905092915050565b6200041d8262000198565b67ffffffffffffffff811115620004395762000438620001a3565b5b62000445825462000201565b6200045282828562000377565b600060209050601f8311600181146200048a576000841562000475578287015190505b620004818582620003f4565b865550620004f1565b601f1984166200049a8662000236565b60005b82811015620004c4578489015182556001820191506020850194506020810190506200049d565b86831015620004e45784890151620004e0601f891682620003d4565b8355505b6001600288020188555050505b505050505050565b61404780620005096000396000f3fe608060405234801561001057600080fd5b50600436106101425760003560e01c806371b3a758116100b8578063b88d4fde1161007c578063b88d4fde14610379578063c87b56dd14610395578063e59c49f5146103c5578063e985e9c5146103f5578063f2fde38b14610425578063f9f411d81461044157610142565b806371b3a758146102d05780638da5cb5b1461030557806395d89b41146103235780639cc7900c14610341578063a22cb4651461035d57610142565b806316a0042c1161010a57806316a0042c1461021257806323b872dd1461022e57806342842e0e1461024a5780636352211e1461026657806370a0823114610296578063715018a6146102c657610142565b806301ffc9a71461014757806306fdde0314610177578063081812fc14610195578063095ea7b3146101c55780630a36f608146101e1575b600080fd5b610161600480360381019061015c919061278b565b610471565b60405161016e91906127d3565b60405180910390f35b61017f610553565b60405161018c919061287e565b60405180910390f35b6101af60048036038101906101aa91906128d6565b6105e5565b6040516101bc9190612944565b60405180910390f35b6101df60048036038101906101da919061298b565b61062b565b005b6101fb60048036038101906101f691906129cb565b610742565b604051610209929190612c77565b60405180910390f35b61022c600480360381019061022791906128d6565b610ae4565b005b61024860048036038101906102439190612cae565b610c7c565b005b610264600480360381019061025f9190612cae565b610cdc565b005b610280600480360381019061027b91906128d6565b610cfc565b60405161028d9190612944565b60405180910390f35b6102b060048036038101906102ab91906129cb565b610d82565b6040516102bd9190612d10565b60405180910390f35b6102ce610e39565b005b6102ea60048036038101906102e591906128d6565b610e4d565b6040516102fc96959493929190612d2b565b60405180910390f35b61030d61104e565b60405161031a9190612944565b60405180910390f35b61032b611078565b604051610338919061287e565b60405180910390f35b61035b60048036038101906103569190612ed6565b61110a565b005b61037760048036038101906103729190612fd1565b611315565b005b610393600480360381019061038e91906130b2565b61132b565b005b6103af60048036038101906103aa91906128d6565b61138d565b6040516103bc919061287e565b60405180910390f35b6103df60048036038101906103da91906129cb565b611406565b6040516103ec9190613135565b60405180910390f35b61040f600480360381019061040a9190613157565b6117a4565b60405161041c91906127d3565b60405180910390f35b61043f600480360381019061043a91906129cb565b611838565b005b61045b6004803603810190610456919061298b565b6118bb565b6040516104689190612d10565b60405180910390f35b60007f80ac58cd000000000000000000000000000000000000000000000000000000007bffffffffffffffffffffffffffffffffffffffffffffffffffffffff1916827bffffffffffffffffffffffffffffffffffffffffffffffffffffffff1916148061053c57507f5b5e139f000000000000000000000000000000000000000000000000000000007bffffffffffffffffffffffffffffffffffffffffffffffffffffffff1916827bffffffffffffffffffffffffffffffffffffffffffffffffffffffff1916145b8061054c575061054b826118ec565b5b9050919050565b606060008054610562906131c6565b80601f016020809104026020016040519081016040528092919081815260200182805461058e906131c6565b80156105db5780601f106105b0576101008083540402835291602001916105db565b820191906000526020600020905b8154815290600101906020018083116105be57829003601f168201915b5050505050905090565b60006105f082611956565b6004600083815260200190815260200160002060009054906101000a900473ffffffffffffffffffffffffffffffffffffffff169050919050565b600061063682610cfc565b90508073ffffffffffffffffffffffffffffffffffffffff168373ffffffffffffffffffffffffffffffffffffffff16036106a6576040517f08c379a000000000000000000000000000000000000000000000000000000000815260040161069d90613269565b60405180910390fd5b8073ffffffffffffffffffffffffffffffffffffffff166106c56119a1565b73ffffffffffffffffffffffffffffffffffffffff1614806106f457506106f3816106ee6119a1565b6117a4565b5b610733576040517f08c379a000000000000000000000000000000000000000000000000000000000815260040161072a906132fb565b60405180910390fd5b61073d83836119a9565b505050565b6060806000600960008573ffffffffffffffffffffffffffffffffffffffff1673ffffffffffffffffffffffffffffffffffffffff1681526020019081526020016000208054806020026020016040519081016040528092919081815260200182805480156107d057602002820191906000526020600020905b8154815260200190600101908083116107bc575b505050505090506000815167ffffffffffffffff8111156107f4576107f3612dab565b5b60405190808252806020026020018201604052801561082d57816020015b61081a6126d1565b8152602001906001900390816108125790505b50905060005b8251811015610ad657600860008483815181106108535761085261331b565b5b602002602001015181526020019081526020016000206040518060c00160405290816000820160009054906101000a900473ffffffffffffffffffffffffffffffffffffffff1673ffffffffffffffffffffffffffffffffffffffff1673ffffffffffffffffffffffffffffffffffffffff1681526020016001820180546108da906131c6565b80601f0160208091040260200160405190810160405280929190818152602001828054610906906131c6565b80156109535780601f1061092857610100808354040283529160200191610953565b820191906000526020600020905b81548152906001019060200180831161093657829003601f168201915b50505050508152602001600282015481526020016003820160009054906101000a900460ff16151515158152602001600482018054610991906131c6565b80601f01602080910402602001604051908101604052809291908181526020018280546109bd906131c6565b8015610a0a5780601f106109df57610100808354040283529160200191610a0a565b820191906000526020600020905b8154815290600101906020018083116109ed57829003601f168201915b50505050508152602001600582018054610a23906131c6565b80601f0160208091040260200160405190810160405280929190818152602001828054610a4f906131c6565b8015610a9c5780601f10610a7157610100808354040283529160200191610a9c565b820191906000526020600020905b815481529060010190602001808311610a7f57829003601f168201915b505050505081525050828281518110610ab857610ab761331b565b5b60200260200101819052508080610ace90613379565b915050610833565b508181935093505050915091565b610aed81611a62565b610b2c576040517f08c379a0000000000000000000000000000000000000000000000000000000008152600401610b239061340d565b60405180910390fd5b3373ffffffffffffffffffffffffffffffffffffffff16610b4c82610cfc565b73ffffffffffffffffffffffffffffffffffffffff1614610ba2576040517f08c379a0000000000000000000000000000000000000000000000000000000008152600401610b9990613479565b60405180910390fd5b6008600082815260200190815260200160002060030160009054906101000a900460ff1615610c06576040517f08c379a0000000000000000000000000000000000000000000000000000000008152600401610bfd906134e5565b60405180910390fd5b60016008600083815260200190815260200160002060030160006101000a81548160ff0219169083151502179055503373ffffffffffffffffffffffffffffffffffffffff16817fbdf496d41407769ff71ececae6537542760506406fb62a651e7ac685c637bd8360405160405180910390a350565b610c8d610c876119a1565b82611aa3565b610ccc576040517f08c379a0000000000000000000000000000000000000000000000000000000008152600401610cc390613577565b60405180910390fd5b610cd7838383611b38565b505050565b610cf78383836040518060200160405280600081525061132b565b505050565b600080610d0883611e31565b9050600073ffffffffffffffffffffffffffffffffffffffff168173ffffffffffffffffffffffffffffffffffffffff1603610d79576040517f08c379a0000000000000000000000000000000000000000000000000000000008152600401610d70906135e3565b60405180910390fd5b80915050919050565b60008073ffffffffffffffffffffffffffffffffffffffff168273ffffffffffffffffffffffffffffffffffffffff1603610df2576040517f08c379a0000000000000000000000000000000000000000000000000000000008152600401610de990613675565b60405180910390fd5b600360008373ffffffffffffffffffffffffffffffffffffffff1673ffffffffffffffffffffffffffffffffffffffff168152602001908152602001600020549050919050565b610e41611e6e565b610e4b6000611eec565b565b60086020528060005260406000206000915090508060000160009054906101000a900473ffffffffffffffffffffffffffffffffffffffff1690806001018054610e96906131c6565b80601f0160208091040260200160405190810160405280929190818152602001828054610ec2906131c6565b8015610f0f5780601f10610ee457610100808354040283529160200191610f0f565b820191906000526020600020905b815481529060010190602001808311610ef257829003601f168201915b5050505050908060020154908060030160009054906101000a900460ff1690806004018054610f3d906131c6565b80601f0160208091040260200160405190810160405280929190818152602001828054610f69906131c6565b8015610fb65780601f10610f8b57610100808354040283529160200191610fb6565b820191906000526020600020905b815481529060010190602001808311610f9957829003601f168201915b505050505090806005018054610fcb906131c6565b80601f0160208091040260200160405190810160405280929190818152602001828054610ff7906131c6565b80156110445780601f1061101957610100808354040283529160200191611044565b820191906000526020600020905b81548152906001019060200180831161102757829003601f168201915b5050505050905086565b6000600660009054906101000a900473ffffffffffffffffffffffffffffffffffffffff16905090565b606060018054611087906131c6565b80601f01602080910402602001604051908101604052809291908181526020018280546110b3906131c6565b80156111005780601f106110d557610100808354040283529160200191611100565b820191906000526020600020905b8154815290600101906020018083116110e357829003601f168201915b5050505050905090565b6111146007611fb2565b60006111206007611fc8565b905061112c3382611fd6565b6040518060c001604052808773ffffffffffffffffffffffffffffffffffffffff168152602001868152602001858152602001600015158152602001848152602001838152506008600083815260200190815260200160002060008201518160000160006101000a81548173ffffffffffffffffffffffffffffffffffffffff021916908373ffffffffffffffffffffffffffffffffffffffff16021790555060208201518160010190816111e19190613841565b506040820151816002015560608201518160030160006101000a81548160ff02191690831515021790555060808201518160040190816112219190613841565b5060a08201518160050190816112379190613841565b50905050600960003373ffffffffffffffffffffffffffffffffffffffff1673ffffffffffffffffffffffffffffffffffffffff1681526020019081526020016000208190806001815401808255809150506001900390600052602060002001600090919091909150558573ffffffffffffffffffffffffffffffffffffffff163373ffffffffffffffffffffffffffffffffffffffff16827f2583442b75ec473d2f13ba2363beaca974b370aeeb761628a9d7d789bc7ff54a888888886040516113059493929190613913565b60405180910390a4505050505050565b6113276113206119a1565b83836121f3565b5050565b61133c6113366119a1565b83611aa3565b61137b576040517f08c379a000000000000000000000000000000000000000000000000000000000815260040161137290613577565b60405180910390fd5b6113878484848461235f565b50505050565b606061139882611a62565b6113d7576040517f08c379a00000000000000000000000000000000000000000000000000000000081526004016113ce9061340d565b60405180910390fd5b6113e0826123bb565b6040516020016113f09190613a1b565b6040516020818303038152906040529050919050565b60606000600960008473ffffffffffffffffffffffffffffffffffffffff1673ffffffffffffffffffffffffffffffffffffffff16815260200190815260200160002080548060200260200160405190810160405280929190818152602001828054801561149357602002820191906000526020600020905b81548152602001906001019080831161147f575b505050505090506000815167ffffffffffffffff8111156114b7576114b6612dab565b5b6040519080825280602002602001820160405280156114f057816020015b6114dd6126d1565b8152602001906001900390816114d55790505b50905060005b825181101561179957600860008483815181106115165761151561331b565b5b602002602001015181526020019081526020016000206040518060c00160405290816000820160009054906101000a900473ffffffffffffffffffffffffffffffffffffffff1673ffffffffffffffffffffffffffffffffffffffff1673ffffffffffffffffffffffffffffffffffffffff16815260200160018201805461159d906131c6565b80601f01602080910402602001604051908101604052809291908181526020018280546115c9906131c6565b80156116165780601f106115eb57610100808354040283529160200191611616565b820191906000526020600020905b8154815290600101906020018083116115f957829003601f168201915b50505050508152602001600282015481526020016003820160009054906101000a900460ff16151515158152602001600482018054611654906131c6565b80601f0160208091040260200160405190810160405280929190818152602001828054611680906131c6565b80156116cd5780601f106116a2576101008083540402835291602001916116cd565b820191906000526020600020905b8154815290600101906020018083116116b057829003601f168201915b505050505081526020016005820180546116e6906131c6565b80601f0160208091040260200160405190810160405280929190818152602001828054611712906131c6565b801561175f5780601f106117345761010080835404028352916020019161175f565b820191906000526020600020905b81548152906001019060200180831161174257829003601f168201915b50505050508152505082828151811061177b5761177a61331b565b5b6020026020010181905250808061179190613379565b9150506114f6565b508092505050919050565b6000600560008473ffffffffffffffffffffffffffffffffffffffff1673ffffffffffffffffffffffffffffffffffffffff16815260200190815260200160002060008373ffffffffffffffffffffffffffffffffffffffff1673ffffffffffffffffffffffffffffffffffffffff16815260200190815260200160002060009054906101000a900460ff16905092915050565b611840611e6e565b600073ffffffffffffffffffffffffffffffffffffffff168173ffffffffffffffffffffffffffffffffffffffff16036118af576040517f08c379a00000000000000000000000000000000000000000000000000000000081526004016118a690613aaf565b60405180910390fd5b6118b881611eec565b50565b600960205281600052604060002081815481106118d757600080fd5b90600052602060002001600091509150505481565b60007f01ffc9a7000000000000000000000000000000000000000000000000000000007bffffffffffffffffffffffffffffffffffffffffffffffffffffffff1916827bffffffffffffffffffffffffffffffffffffffffffffffffffffffff1916149050919050565b61195f81611a62565b61199e576040517f08c379a0000000000000000000000000000000000000000000000000000000008152600401611995906135e3565b60405180910390fd5b50565b600033905090565b816004600083815260200190815260200160002060006101000a81548173ffffffffffffffffffffffffffffffffffffffff021916908373ffffffffffffffffffffffffffffffffffffffff160217905550808273ffffffffffffffffffffffffffffffffffffffff16611a1c83610cfc565b73ffffffffffffffffffffffffffffffffffffffff167f8c5be1e5ebec7d5bd14f71427d1e84f3dd0314c0f7b2291e5b200ac8c7c3b92560405160405180910390a45050565b60008073ffffffffffffffffffffffffffffffffffffffff16611a8483611e31565b73ffffffffffffffffffffffffffffffffffffffff1614159050919050565b600080611aaf83610cfc565b90508073ffffffffffffffffffffffffffffffffffffffff168473ffffffffffffffffffffffffffffffffffffffff161480611af15750611af081856117a4565b5b80611b2f57508373ffffffffffffffffffffffffffffffffffffffff16611b17846105e5565b73ffffffffffffffffffffffffffffffffffffffff16145b91505092915050565b8273ffffffffffffffffffffffffffffffffffffffff16611b5882610cfc565b73ffffffffffffffffffffffffffffffffffffffff1614611bae576040517f08c379a0000000000000000000000000000000000000000000000000000000008152600401611ba590613b41565b60405180910390fd5b600073ffffffffffffffffffffffffffffffffffffffff168273ffffffffffffffffffffffffffffffffffffffff1603611c1d576040517f08c379a0000000000000000000000000000000000000000000000000000000008152600401611c1490613bd3565b60405180910390fd5b611c2a838383600161251b565b8273ffffffffffffffffffffffffffffffffffffffff16611c4a82610cfc565b73ffffffffffffffffffffffffffffffffffffffff1614611ca0576040517f08c379a0000000000000000000000000000000000000000000000000000000008152600401611c9790613b41565b60405180910390fd5b6004600082815260200190815260200160002060006101000a81549073ffffffffffffffffffffffffffffffffffffffff02191690556001600360008573ffffffffffffffffffffffffffffffffffffffff1673ffffffffffffffffffffffffffffffffffffffff168152602001908152602001600020600082825403925050819055506001600360008473ffffffffffffffffffffffffffffffffffffffff1673ffffffffffffffffffffffffffffffffffffffff16815260200190815260200160002060008282540192505081905550816002600083815260200190815260200160002060006101000a81548173ffffffffffffffffffffffffffffffffffffffff021916908373ffffffffffffffffffffffffffffffffffffffff160217905550808273ffffffffffffffffffffffffffffffffffffffff168473ffffffffffffffffffffffffffffffffffffffff167fddf252ad1be2c89b69c2b068fc378daa952ba7f163c4a11628f55a4df523b3ef60405160405180910390a4611e2c8383836001612521565b505050565b60006002600083815260200190815260200160002060009054906101000a900473ffffffffffffffffffffffffffffffffffffffff169050919050565b611e766119a1565b73ffffffffffffffffffffffffffffffffffffffff16611e9461104e565b73ffffffffffffffffffffffffffffffffffffffff1614611eea576040517f08c379a0000000000000000000000000000000000000000000000000000000008152600401611ee190613c3f565b60405180910390fd5b565b6000600660009054906101000a900473ffffffffffffffffffffffffffffffffffffffff16905081600660006101000a81548173ffffffffffffffffffffffffffffffffffffffff021916908373ffffffffffffffffffffffffffffffffffffffff1602179055508173ffffffffffffffffffffffffffffffffffffffff168173ffffffffffffffffffffffffffffffffffffffff167f8be0079c531659141344cd1fd0a4f28419497f9722a3daafe3b4186f6b6457e060405160405180910390a35050565b6001816000016000828254019250508190555050565b600081600001549050919050565b600073ffffffffffffffffffffffffffffffffffffffff168273ffffffffffffffffffffffffffffffffffffffff1603612045576040517f08c379a000000000000000000000000000000000000000000000000000000000815260040161203c90613cab565b60405180910390fd5b61204e81611a62565b1561208e576040517f08c379a000000000000000000000000000000000000000000000000000000000815260040161208590613d17565b60405180910390fd5b61209c60008383600161251b565b6120a581611a62565b156120e5576040517f08c379a00000000000000000000000000000000000000000000000000000000081526004016120dc90613d17565b60405180910390fd5b6001600360008473ffffffffffffffffffffffffffffffffffffffff1673ffffffffffffffffffffffffffffffffffffffff16815260200190815260200160002060008282540192505081905550816002600083815260200190815260200160002060006101000a81548173ffffffffffffffffffffffffffffffffffffffff021916908373ffffffffffffffffffffffffffffffffffffffff160217905550808273ffffffffffffffffffffffffffffffffffffffff16600073ffffffffffffffffffffffffffffffffffffffff167fddf252ad1be2c89b69c2b068fc378daa952ba7f163c4a11628f55a4df523b3ef60405160405180910390a46121ef600083836001612521565b5050565b8173ffffffffffffffffffffffffffffffffffffffff168373ffffffffffffffffffffffffffffffffffffffff1603612261576040517f08c379a000000000000000000000000000000000000000000000000000000000815260040161225890613d83565b60405180910390fd5b80600560008573ffffffffffffffffffffffffffffffffffffffff1673ffffffffffffffffffffffffffffffffffffffff16815260200190815260200160002060008473ffffffffffffffffffffffffffffffffffffffff1673ffffffffffffffffffffffffffffffffffffffff16815260200190815260200160002060006101000a81548160ff0219169083151502179055508173ffffffffffffffffffffffffffffffffffffffff168373ffffffffffffffffffffffffffffffffffffffff167f17307eab39ab6107e8899845ad3d59bd9653f200f220920489ca2b5937696c318360405161235291906127d3565b60405180910390a3505050565b61236a848484611b38565b61237684848484612527565b6123b5576040517f08c379a00000000000000000000000000000000000000000000000000000000081526004016123ac90613e15565b60405180910390fd5b50505050565b606060008203612402576040518060400160405280600181526020017f30000000000000000000000000000000000000000000000000000000000000008152509050612516565b600082905060005b6000821461243457808061241d90613379565b915050600a8261242d9190613e64565b915061240a565b60008167ffffffffffffffff8111156124505761244f612dab565b5b6040519080825280601f01601f1916602001820160405280156124825781602001600182028036833780820191505090505b5090505b6000851461250f5760018261249b9190613e95565b9150600a856124aa9190613ec9565b60306124b69190613efa565b60f81b8183815181106124cc576124cb61331b565b5b60200101907effffffffffffffffffffffffffffffffffffffffffffffffffffffffffffff1916908160001a905350600a856125089190613e64565b9450612486565b8093505050505b919050565b50505050565b50505050565b60006125488473ffffffffffffffffffffffffffffffffffffffff166126ae565b156126a1578373ffffffffffffffffffffffffffffffffffffffff1663150b7a026125716119a1565b8786866040518563ffffffff1660e01b81526004016125939493929190613f83565b6020604051808303816000875af19250505080156125cf57506040513d601f19601f820116820180604052508101906125cc9190613fe4565b60015b612651573d80600081146125ff576040519150601f19603f3d011682016040523d82523d6000602084013e612604565b606091505b506000815103612649576040517f08c379a000000000000000000000000000000000000000000000000000000000815260040161264090613e15565b60405180910390fd5b805181602001fd5b63150b7a0260e01b7bffffffffffffffffffffffffffffffffffffffffffffffffffffffff1916817bffffffffffffffffffffffffffffffffffffffffffffffffffffffff1916149150506126a6565b600190505b949350505050565b6000808273ffffffffffffffffffffffffffffffffffffffff163b119050919050565b6040518060c00160405280600073ffffffffffffffffffffffffffffffffffffffff168152602001606081526020016000815260200160001515815260200160608152602001606081525090565b6000604051905090565b600080fd5b600080fd5b60007fffffffff0000000000000000000000000000000000000000000000000000000082169050919050565b61276881612733565b811461277357600080fd5b50565b6000813590506127858161275f565b92915050565b6000602082840312156127a1576127a0612729565b5b60006127af84828501612776565b91505092915050565b60008115159050919050565b6127cd816127b8565b82525050565b60006020820190506127e860008301846127c4565b92915050565b600081519050919050565b600082825260208201905092915050565b60005b8381101561282857808201518184015260208101905061280d565b60008484015250505050565b6000601f19601f8301169050919050565b6000612850826127ee565b61285a81856127f9565b935061286a81856020860161280a565b61287381612834565b840191505092915050565b600060208201905081810360008301526128988184612845565b905092915050565b6000819050919050565b6128b3816128a0565b81146128be57600080fd5b50565b6000813590506128d0816128aa565b92915050565b6000602082840312156128ec576128eb612729565b5b60006128fa848285016128c1565b91505092915050565b600073ffffffffffffffffffffffffffffffffffffffff82169050919050565b600061292e82612903565b9050919050565b61293e81612923565b82525050565b60006020820190506129596000830184612935565b92915050565b61296881612923565b811461297357600080fd5b50565b6000813590506129858161295f565b92915050565b600080604083850312156129a2576129a1612729565b5b60006129b085828601612976565b92505060206129c1858286016128c1565b9150509250929050565b6000602082840312156129e1576129e0612729565b5b60006129ef84828501612976565b91505092915050565b600081519050919050565b600082825260208201905092915050565b6000819050602082019050919050565b612a2d816128a0565b82525050565b6000612a3f8383612a24565b60208301905092915050565b6000602082019050919050565b6000612a63826129f8565b612a6d8185612a03565b9350612a7883612a14565b8060005b83811015612aa9578151612a908882612a33565b9750612a9b83612a4b565b925050600181019050612a7c565b5085935050505092915050565b600081519050919050565b600082825260208201905092915050565b6000819050602082019050919050565b612aeb81612923565b82525050565b600082825260208201905092915050565b6000612b0d826127ee565b612b178185612af1565b9350612b2781856020860161280a565b612b3081612834565b840191505092915050565b612b44816127b8565b82525050565b600060c083016000830151612b626000860182612ae2565b5060208301518482036020860152612b7a8282612b02565b9150506040830151612b8f6040860182612a24565b506060830151612ba26060860182612b3b565b5060808301518482036080860152612bba8282612b02565b91505060a083015184820360a0860152612bd48282612b02565b9150508091505092915050565b6000612bed8383612b4a565b905092915050565b6000602082019050919050565b6000612c0d82612ab6565b612c178185612ac1565b935083602082028501612c2985612ad2565b8060005b85811015612c655784840389528151612c468582612be1565b9450612c5183612bf5565b925060208a01995050600181019050612c2d565b50829750879550505050505092915050565b60006040820190508181036000830152612c918185612a58565b90508181036020830152612ca58184612c02565b90509392505050565b600080600060608486031215612cc757612cc6612729565b5b6000612cd586828701612976565b9350506020612ce686828701612976565b9250506040612cf7868287016128c1565b9150509250925092565b612d0a816128a0565b82525050565b6000602082019050612d256000830184612d01565b92915050565b600060c082019050612d406000830189612935565b8181036020830152612d528188612845565b9050612d616040830187612d01565b612d6e60608301866127c4565b8181036080830152612d808185612845565b905081810360a0830152612d948184612845565b9050979650505050505050565b600080fd5b600080fd5b7f4e487b7100000000000000000000000000000000000000000000000000000000600052604160045260246000fd5b612de382612834565b810181811067ffffffffffffffff82111715612e0257612e01612dab565b5b80604052505050565b6000612e1561271f565b9050612e218282612dda565b919050565b600067ffffffffffffffff821115612e4157612e40612dab565b5b612e4a82612834565b9050602081019050919050565b82818337600083830152505050565b6000612e79612e7484612e26565b612e0b565b905082815260208101848484011115612e9557612e94612da6565b5b612ea0848285612e57565b509392505050565b600082601f830112612ebd57612ebc612da1565b5b8135612ecd848260208601612e66565b91505092915050565b600080600080600060a08688031215612ef257612ef1612729565b5b6000612f0088828901612976565b955050602086013567ffffffffffffffff811115612f2157612f2061272e565b5b612f2d88828901612ea8565b9450506040612f3e888289016128c1565b935050606086013567ffffffffffffffff811115612f5f57612f5e61272e565b5b612f6b88828901612ea8565b925050608086013567ffffffffffffffff811115612f8c57612f8b61272e565b5b612f9888828901612ea8565b9150509295509295909350565b612fae816127b8565b8114612fb957600080fd5b50565b600081359050612fcb81612fa5565b92915050565b60008060408385031215612fe857612fe7612729565b5b6000612ff685828601612976565b925050602061300785828601612fbc565b9150509250929050565b600067ffffffffffffffff82111561302c5761302b612dab565b5b61303582612834565b9050602081019050919050565b600061305561305084613011565b612e0b565b90508281526020810184848401111561307157613070612da6565b5b61307c848285612e57565b509392505050565b600082601f83011261309957613098612da1565b5b81356130a9848260208601613042565b91505092915050565b600080600080608085870312156130cc576130cb612729565b5b60006130da87828801612976565b94505060206130eb87828801612976565b93505060406130fc878288016128c1565b925050606085013567ffffffffffffffff81111561311d5761311c61272e565b5b61312987828801613084565b91505092959194509250565b6000602082019050818103600083015261314f8184612c02565b905092915050565b6000806040838503121561316e5761316d612729565b5b600061317c85828601612976565b925050602061318d85828601612976565b9150509250929050565b7f4e487b7100000000000000000000000000000000000000000000000000000000600052602260045260246000fd5b600060028204905060018216806131de57607f821691505b6020821081036131f1576131f0613197565b5b50919050565b7f4552433732313a20617070726f76616c20746f2063757272656e74206f776e6560008201527f7200000000000000000000000000000000000000000000000000000000000000602082015250565b60006132536021836127f9565b915061325e826131f7565b604082019050919050565b6000602082019050818103600083015261328281613246565b9050919050565b7f4552433732313a20617070726f76652063616c6c6572206973206e6f7420746f60008201527f6b656e206f776e6572206f7220617070726f76656420666f7220616c6c000000602082015250565b60006132e5603d836127f9565b91506132f082613289565b604082019050919050565b60006020820190508181036000830152613314816132d8565b9050919050565b7f4e487b7100000000000000000000000000000000000000000000000000000000600052603260045260246000fd5b7f4e487b7100000000000000000000000000000000000000000000000000000000600052601160045260246000fd5b6000613384826128a0565b91507fffffffffffffffffffffffffffffffffffffffffffffffffffffffffffffffff82036133b6576133b561334a565b5b600182019050919050565b7f546f6b656e20646f6573206e6f74206578697374000000000000000000000000600082015250565b60006133f76014836127f9565b9150613402826133c1565b602082019050919050565b60006020820190508181036000830152613426816133ea565b9050919050565b7f4e6f742074686520746f6b656e206f776e657200000000000000000000000000600082015250565b60006134636013836127f9565b915061346e8261342d565b602082019050919050565b6000602082019050818103600083015261349281613456565b9050919050565b7f416c7265616479207265766f6b65640000000000000000000000000000000000600082015250565b60006134cf600f836127f9565b91506134da82613499565b602082019050919050565b600060208201905081810360008301526134fe816134c2565b9050919050565b7f4552433732313a2063616c6c6572206973206e6f7420746f6b656e206f776e6560008201527f72206f7220617070726f76656400000000000000000000000000000000000000602082015250565b6000613561602d836127f9565b915061356c82613505565b604082019050919050565b6000602082019050818103600083015261359081613554565b9050919050565b7f4552433732313a20696e76616c696420746f6b656e2049440000000000000000600082015250565b60006135cd6018836127f9565b91506135d882613597565b602082019050919050565b600060208201905081810360008301526135fc816135c0565b9050919050565b7f4552433732313a2061646472657373207a65726f206973206e6f74206120766160008201527f6c6964206f776e65720000000000000000000000000000000000000000000000602082015250565b600061365f6029836127f9565b915061366a82613603565b604082019050919050565b6000602082019050818103600083015261368e81613652565b9050919050565b60008190508160005260206000209050919050565b60006020601f8301049050919050565b600082821b905092915050565b6000600883026136f77fffffffffffffffffffffffffffffffffffffffffffffffffffffffffffffffff826136ba565b61370186836136ba565b95508019841693508086168417925050509392505050565b6000819050919050565b600061373e613739613734846128a0565b613719565b6128a0565b9050919050565b6000819050919050565b61375883613723565b61376c61376482613745565b8484546136c7565b825550505050565b600090565b613781613774565b61378c81848461374f565b505050565b5b818110156137b0576137a5600082613779565b600181019050613792565b5050565b601f8211156137f5576137c681613695565b6137cf846136aa565b810160208510156137de578190505b6137f26137ea856136aa565b830182613791565b50505b505050565b600082821c905092915050565b6000613818600019846008026137fa565b1980831691505092915050565b60006138318383613807565b9150826002028217905092915050565b61384a826127ee565b67ffffffffffffffff81111561386357613862612dab565b5b61386d82546131c6565b6138788282856137b4565b600060209050601f8311600181146138ab5760008415613899578287015190505b6138a38582613825565b86555061390b565b601f1984166138b986613695565b60005b828110156138e1578489015182556001820191506020850194506020810190506138bc565b868310156138fe57848901516138fa601f891682613807565b8355505b6001600288020188555050505b505050505050565b6000608082019050818103600083015261392d8187612845565b905061393c6020830186612d01565b818103604083015261394e8185612845565b905081810360608301526139628184612845565b905095945050505050565b600081905092915050565b7f68747470733a2f2f6170692e636f6e73656e7477616c6c65742e636f6d2f746f60008201527f6b656e2f00000000000000000000000000000000000000000000000000000000602082015250565b60006139d460248361396d565b91506139df82613978565b602482019050919050565b60006139f5826127ee565b6139ff818561396d565b9350613a0f81856020860161280a565b80840191505092915050565b6000613a26826139c7565b9150613a3282846139ea565b915081905092915050565b7f4f776e61626c653a206e6577206f776e657220697320746865207a65726f206160008201527f6464726573730000000000000000000000000000000000000000000000000000602082015250565b6000613a996026836127f9565b9150613aa482613a3d565b604082019050919050565b60006020820190508181036000830152613ac881613a8c565b9050919050565b7f4552433732313a207472616e736665722066726f6d20696e636f72726563742060008201527f6f776e6572000000000000000000000000000000000000000000000000000000602082015250565b6000613b2b6025836127f9565b9150613b3682613acf565b604082019050919050565b60006020820190508181036000830152613b5a81613b1e565b9050919050565b7f4552433732313a207472616e7366657220746f20746865207a65726f2061646460008201527f7265737300000000000000000000000000000000000000000000000000000000602082015250565b6000613bbd6024836127f9565b9150613bc882613b61565b604082019050919050565b60006020820190508181036000830152613bec81613bb0565b9050919050565b7f4f776e61626c653a2063616c6c6572206973206e6f7420746865206f776e6572600082015250565b6000613c296020836127f9565b9150613c3482613bf3565b602082019050919050565b60006020820190508181036000830152613c5881613c1c565b9050919050565b7f4552433732313a206d696e7420746f20746865207a65726f2061646472657373600082015250565b6000613c956020836127f9565b9150613ca082613c5f565b602082019050919050565b60006020820190508181036000830152613cc481613c88565b9050919050565b7f4552433732313a20746f6b656e20616c7265616479206d696e74656400000000600082015250565b6000613d01601c836127f9565b9150613d0c82613ccb565b602082019050919050565b60006020820190508181036000830152613d3081613cf4565b9050919050565b7f4552433732313a20617070726f766520746f2063616c6c657200000000000000600082015250565b6000613d6d6019836127f9565b9150613d7882613d37565b602082019050919050565b60006020820190508181036000830152613d9c81613d60565b9050919050565b7f4552433732313a207472616e7366657220746f206e6f6e20455243373231526560008201527f63656976657220696d706c656d656e7465720000000000000000000000000000602082015250565b6000613dff6032836127f9565b9150613e0a82613da3565b604082019050919050565b60006020820190508181036000830152613e2e81613df2565b9050919050565b7f4e487b7100000000000000000000000000000000000000000000000000000000600052601260045260246000fd5b6000613e6f826128a0565b9150613e7a836128a0565b925082613e8a57613e89613e35565b5b828204905092915050565b6000613ea0826128a0565b9150613eab836128a0565b9250828203905081811115613ec357613ec261334a565b5b92915050565b6000613ed4826128a0565b9150613edf836128a0565b925082613eef57613eee613e35565b5b828206905092915050565b6000613f05826128a0565b9150613f10836128a0565b9250828201905080821115613f2857613f2761334a565b5b92915050565b600081519050919050565b600082825260208201905092915050565b6000613f5582613f2e565b613f5f8185613f39565b9350613f6f81856020860161280a565b613f7881612834565b840191505092915050565b6000608082019050613f986000830187612935565b613fa56020830186612935565b613fb26040830185612d01565b8181036060830152613fc48184613f4a565b905095945050505050565b600081519050613fde8161275f565b92915050565b600060208284031215613ffa57613ff9612729565b5b600061400884828501613fcf565b9150509291505056fea26469706673582212202f8175726dcbb946c395ce3de46615b81db9526dfeadd489d8ad3c439b0cde1b64736f6c63430008140033",
  "linkReferences": {},
  "deployedLinkReferences": {}
}