{
  "_format": "hh-sol-artifact-1",
  "contractName": "ConsentToken",
  "sourceName": "contracts/ConsentToken.sol",
  "abi": [
    {
      "inputs": [],
      "stateMutability": "nonpayable",
      "type": "constructor"
    },
    {
      "anonymous": false,
      "inputs": [
        {
          "indexed": true,
          "internalType": "address",
          "name": "owner",
          "type": "address"
        },
        {
          "indexed": true,
          "internalType": "address",
          "name": "approved",
          "type": "address"
        },
        {
          "indexed": true,
          "internalType": "uint256",
          "name": "tokenId",
          "type": "uint256"
        }
      ],
      "name": "Approval",
      "type": "event"
    },
    {
      "anonymous": false,
      "inputs": [
        {
          "indexed": true,
          "internalType": "address",
          "name": "owner",
          "type": "address"
        },
        {
          "indexed": true,
          "internalType": "address",
          "name": "operator",
          "type": "address"
        },
        {
          "indexed": false,
          "internalType": "bool",
          "name": "approved",
          "type": "bool"
        }
      ],
      "name": "ApprovalForAll",
      "type": "event"
    },
    {
      "anonymous": false,
      "inputs": [
        {
          "indexed": true,
          "internalType": "uint256",
          "name": "tokenId",
          "type": "uint256"
        },
        {
          "indexed": true,
          "internalType": "address",
          "name": "issuer",
          "type": "address"
        },
        {
          "indexed": true,
          "internalType": "address",
          "name": "recipient",
          "type": "address"
        },
        {
          "indexed": false,
          "internalType": "string",
          "name": "purpose",
          "type": "string"
        },
        {
          "indexed": false,
          "internalType": "uint256",
          "name": "expiryDate",
          "type": "uint256"
        },
        {
          "indexed": false,
          "internalType": "string",
          "name": "website",
          "type": "string"
        },
        {
          "indexed": false,
          "internalType": "string",
          "name": "dataFields",
          "type": "string"
        }
      ],
      "name": "ConsentMinted",
      "type": "event"
    },
    {
      "anonymous": false,
      "inputs": [
        {
          "indexed": true,
          "internalType": "uint256",
          "name": "tokenId",
          "type": "uint256"
        },
        {
          "indexed": true,
          "internalType": "address",
          "name": "issuer",
          "type": "address"
        }
      ],
      "name": "ConsentRevoked",
      "type": "event"
    },
    {
      "anonymous": false,
      "inputs": [
        {
          "indexed": true,
          "internalType": "address",
          "name": "previousOwner",
          "type": "address"
        },
        {
          "indexed": true,
          "internalType": "address",
          "name": "newOwner",
          "type": "address"
        }
      ],
      "name": "OwnershipTransferred",
      "type": "event"
    },
    {
      "anonymous": false,
      "inputs": [
        {
          "indexed": true,
          "internalType": "address",
          "name": "from",
          "type": "address"
        },
        {
          "indexed": true,
          "internalType": "address",
          "name": "to",
          "type": "address"
        },
        {
          "indexed": true,
          "internalType": "uint256",
          "name": "tokenId",
          "type": "uint256"
        }
      ],
      "name": "Transfer",
      "type": "event"
    },
    {
      "inputs": [
        {
          "internalType": "uint256",
          "name": "tokenId",
          "type": "uint256"
        }
      ],
      "name": "abandonConsent",
      "outputs": [],
      "stateMutability": "nonpayable",
      "type": "function"
    },
    {
      "inputs": [
        {
          "internalType": "uint256",
          "name": "tokenId",
          "type": "uint256"
        }
      ],
      "name": "activateConsent",
      "outputs": [],
      "stateMutability": "nonpayable",
      "type": "function"
    },
    {
      "inputs": [
        {
          "internalType": "address",
          "name": "to",
          "type": "address"
        },
        {
          "internalType": "uint256",
          "name": "tokenId",
          "type": "uint256"
        }
      ],
      "name": "approve",
      "outputs": [],
      "stateMutability": "nonpayable",
      "type": "function"
    },
    {
      "inputs": [
        {
          "internalType": "address",
          "name": "owner",
          "type": "address"
        }
      ],
      "name": "balanceOf",
      "outputs": [
        {
          "internalType": "uint256",
          "name": "",
          "type": "uint256"
        }
      ],
      "stateMutability": "view",
      "type": "function"
    },
    {
      "inputs": [
        {
          "internalType": "uint256",
          "name": "",
          "type": "uint256"
        }
      ],
      "name": "consentData",
      "outputs": [
        {
          "internalType": "address",
          "name": "recipient",
          "type": "address"
        },
        {
          "internalType": "string",
          "name": "purpose",
          "type": "string"
        },
        {
          "internalType": "uint256",
          "name": "expiryDate",
          "type": "uint256"
        },
        {
          "internalType": "bool",
          "name": "isRevoked",
          "type": "bool"
        },
        {
          "internalType": "string",
          "name": "website",
          "type": "string"
        },
        {
          "internalType": "string",
          "name": "dataFields",
          "type": "string"
        },
        {
          "internalType": "enum ConsentToken.ConsentStatus",
          "name": "status",
          "type": "uint8"
        },
        {
          "internalType": "uint256",
          "name": "issuedAt",
          "type": "uint256"
        }
      ],
      "stateMutability": "view",
      "type": "function"
    },
    {
      "inputs": [
        {
          "internalType": "uint256",
          "name": "tokenId",
          "type": "uint256"
        }
      ],
      "name": "getApproved",
      "outputs": [
        {
          "internalType": "address",
          "name": "",
          "type": "address"
        }
      ],
      "stateMutability": "view",
      "type": "function"
    },
    {
      "inputs": [
        {
          "internalType": "address",
          "name": "owner",
          "type": "address"
        }
      ],
      "name": "getMyConsents",
      "outputs": [
        {
          "components": [
            {
              "internalType": "address",
              "name": "recipient",
              "type": "address"
            },
            {
              "internalType": "string",
              "name": "purpose",
              "type": "string"
            },
            {
              "internalType": "uint256",
              "name": "expiryDate",
              "type": "uint256"
            },
            {
              "internalType": "bool",
              "name": "isRevoked",
              "type": "bool"
            },
            {
              "internalType": "string",
              "name": "website",
              "type": "string"
            },
            {
              "internalType": "string",
              "name": "dataFields",
              "type": "string"
            },
            {
              "internalType": "enum ConsentToken.ConsentStatus",
              "name": "status",
              "type": "uint8"
            },
            {
              "internalType": "uint256",
              "name": "issuedAt",
              "type": "uint256"
            }
          ],
          "internalType": "struct ConsentToken.ConsentData[]",
          "name": "",
          "type": "tuple[]"
        }
      ],
      "stateMutability": "view",
      "type": "function"
    },
    {
      "inputs": [
        {
          "internalType": "address",
          "name": "owner",
          "type": "address"
        }
      ],
      "name": "getMyConsentsWithIds",
      "outputs": [
        {
          "internalType": "uint256[]",
          "name": "",
          "type": "uint256[]"
        },
        {
          "components": [
            {
              "internalType": "address",
              "name": "recipient",
              "type": "address"
            },
            {
              "internalType": "string",
              "name": "purpose",
              "type": "string"
            },
            {
              "internalType": "uint256",
              "name": "expiryDate",
              "type": "uint256"
            },
            {
              "internalType": "bool",
              "name": "isRevoked",
              "type": "bool"
            },
            {
              "internalType": "string",
              "name": "website",
              "type": "string"
            },
            {
              "internalType": "string",
              "name": "dataFields",
              "type": "string"
            },
            {
              "internalType": "enum ConsentToken.ConsentStatus",
              "name": "status",
              "type": "uint8"
            },
            {
              "internalType": "uint256",
              "name": "issuedAt",
              "type": "uint256"
            }
          ],
          "internalType": "struct ConsentToken.ConsentData[]",
          "name": "",
          "type": "tuple[]"
        }
      ],
      "stateMutability": "view",
      "type": "function"
    },
    {
      "inputs": [
        {
          "internalType": "address",
          "name": "owner",
          "type": "address"
        },
        {
          "internalType": "address",
          "name": "operator",
          "type": "address"
        }
      ],
      "name": "isApprovedForAll",
      "outputs": [
        {
          "internalType": "bool",
          "name": "",
          "type": "bool"
        }
      ],
      "stateMutability": "view",
      "type": "function"
    },
    {
      "inputs": [
        {
          "internalType": "address",
          "name": "recipient",
          "type": "address"
        },
        {
          "internalType": "string",
          "name": "purpose",
          "type": "string"
        },
        {
          "internalType": "uint256",
          "name": "expiryDate",
          "type": "uint256"
        },
        {
          "internalType": "string",
          "name": "website",
          "type": "string"
        },
        {
          "internalType": "string",
          "name": "dataFields",
          "type": "string"
        }
      ],
      "name": "mintConsent",
      "outputs": [],
      "stateMutability": "nonpayable",
      "type": "function"
    },
    {
      "inputs": [],
      "name": "name",
      "outputs": [
        {
          "internalType": "string",
          "name": "",
          "type": "string"
        }
      ],
      "stateMutability": "view",
      "type": "function"
    },
    {
      "inputs": [],
      "name": "owner",
      "outputs": [
        {
          "internalType": "address",
          "name": "",
          "type": "address"
        }
      ],
      "stateMutability": "view",
      "type": "function"
    },
    {
      "inputs": [
        {
          "internalType": "uint256",
          "name": "tokenId",
          "type": "uint256"
        }
      ],
      "name": "ownerOf",
      "outputs": [
        {
          "internalType": "address",
          "name": "",
          "type": "address"
        }
      ],
      "stateMutability": "view",
      "type": "function"
    },
    {
      "inputs": [],
      "name": "renounceOwnership",
      "outputs": [],
      "stateMutability": "nonpayable",
      "type": "function"
    },
    {
      "inputs": [
        {
          "internalType": "uint256",
          "name": "tokenId",
          "type": "uint256"
        }
      ],
      "name": "revokeConsent",
      "outputs": [],
      "stateMutability": "nonpayable",
      "type": "function"
    },
    {
      "inputs": [
        {
          "internalType": "address",
          "name": "from",
          "type": "address"
        },
        {
          "internalType": "address",
          "name": "to",
          "type": "address"
        },
        {
          "internalType": "uint256",
          "name": "tokenId",
          "type": "uint256"
        }
      ],
      "name": "safeTransferFrom",
      "outputs": [],
      "stateMutability": "nonpayable",
      "type": "function"
    },
    {
      "inputs": [
        {
          "internalType": "address",
          "name": "from",
          "type": "address"
        },
        {
          "internalType": "address",
          "name": "to",
          "type": "address"
        },
        {
          "internalType": "uint256",
          "name": "tokenId",
          "type": "uint256"
        },
        {
          "internalType": "bytes",
          "name": "data",
          "type": "bytes"
        }
      ],
      "name": "safeTransferFrom",
      "outputs": [],
      "stateMutability": "nonpayable",
      "type": "function"
    },
    {
      "inputs": [
        {
          "internalType": "address",
          "name": "operator",
          "type": "address"
        },
        {
          "internalType": "bool",
          "name": "approved",
          "type": "bool"
        }
      ],
      "name": "setApprovalForAll",
      "outputs": [],
      "stateMutability": "nonpayable",
      "type": "function"
    },
    {
      "inputs": [
        {
          "internalType": "bytes4",
          "name": "interfaceId",
          "type": "bytes4"
        }
      ],
      "name": "supportsInterface",
      "outputs": [
        {
          "internalType": "bool",
          "name": "",
          "type": "bool"
        }
      ],
      "stateMutability": "view",
      "type": "function"
    },
    {
      "inputs": [],
      "name": "symbol",
      "outputs": [
        {
          "internalType": "string",
          "name": "",
          "type": "string"
        }
      ],
      "stateMutability": "view",
      "type": "function"
    },
    {
      "inputs": [
        {
          "internalType": "uint256",
          "name": "tokenId",
          "type": "uint256"
        }
      ],
      "name": "tokenURI",
      "outputs": [
        {
          "internalType": "string",
          "name": "",
          "type": "string"
        }
      ],
      "stateMutability": "view",
      "type": "function"
    },
    {
      "inputs": [
        {
          "internalType": "address",
          "name": "from",
          "type": "address"
        },
        {
          "internalType": "address",
          "name": "to",
          "type": "address"
        },
        {
          "internalType": "uint256",
          "name": "tokenId",
          "type": "uint256"
        }
      ],
      "name": "transferFrom",
      "outputs": [],
      "stateMutability": "nonpayable",
      "type": "function"
    },
    {
      "inputs": [
        {
          "internalType": "address",
          "name": "newOwner",
          "type": "address"
        }
      ],
      "name": "transferOwnership",
      "outputs": [],
      "stateMutability": "nonpayable",
      "type": "function"
    },
    {
      "inputs": [
        {
          "internalType": "address",
          "name": "",
          "type": "address"
        },
        {
          "internalType": "uint256",
          "name": "",
          "type": "uint256"
        }
      ],
      "name": "userTokens",
      "outputs": [
        {
          "internalType": "uint256",
          "name": "",
          "type": "uint256"
        }
      ],
      "stateMutability": "view",
      "type": "function"
    }
  ],
  "bytecode": "0x60806040523480156200001157600080fd5b506040518060400160405280600d81526020017f436f6e73656e7420546f6b656e000000000000000000000000000000000000008152506040518060400160405280600781526020017f434f4e53454e540000000000000000000000000000000000000000000000000081525081600090816200008f919062000412565b508060019081620000a1919062000412565b505050620000c4620000b8620000ca60201b60201c565b620000d260201b60201c565b620004f9565b600033905090565b6000600660009054906101000a900473ffffffffffffffffffffffffffffffffffffffff16905081600660006101000a81548173ffffffffffffffffffffffffffffffffffffffff021916908373ffffffffffffffffffffffffffffffffffffffff1602179055508173ffffffffffffffffffffffffffffffffffffffff168173ffffffffffffffffffffffffffffffffffffffff167f8be0079c531659141344cd1fd0a4f28419497f9722a3daafe3b4186f6b6457e060405160405180910390a35050565b600081519050919050565b7f4e487b7100000000000000000000000000000000000000000000000000000000600052604160045260246000fd5b7f4e487b7100000000000000000000000000000000000000000000000000000000600052602260045260246000fd5b600060028204905060018216806200021a57607f821691505b60208210810362000230576200022f620001d2565b5b50919050565b60008190508160005260206000209050919050565b60006020601f8301049050919050565b600082821b905092915050565b6000600883026200029a7fffffffffffffffffffffffffffffffffffffffffffffffffffffffffffffffff826200025b565b620002a686836200025b565b95508019841693508086168417925050509392505050565b6000819050919050565b6000819050919050565b6000620002f3620002ed620002e784620002be565b620002c8565b620002be565b9050919050565b6000819050919050565b6200030f83620002d2565b620003276200031e82620002fa565b84845462000268565b825550505050565b600090565b6200033e6200032f565b6200034b81848462000304565b505050565b5b8181101562000373576200036760008262000334565b60018101905062000351565b5050565b601f821115620003c2576200038c8162000236565b62000397846200024b565b81016020851015620003a7578190505b620003bf620003b6856200024b565b83018262000350565b50505b505050565b600082821c905092915050565b6000620003e760001984600802620003c7565b1980831691505092915050565b6000620004028383620003d4565b9150826002028217905092915050565b6200041d8262000198565b67ffffffffffffffff811115620004395762000438620001a3565b5b62000445825462000201565b6200045282828562000377565b600060209050601f8311600181146200048a576000841562000475578287015190505b620004818582620003f4565b865550620004f1565b601f1984166200049a8662000236565b60005b82811015620004c4578489015182556001820191506020850194506020810190506200049d565b86831015620004e45784890151620004e0601f891682620003d4565b8355505b6001600288020188555050505b505050505050565b61465c80620005096000396000f3fe608060405234801561001057600080fd5b50600436106101585760003560e01c80638da5cb5b116100c3578063c64523911161007c578063c6452391146103c9578063c87b56dd146103e5578063e59c49f514610415578063e985e9c514610445578063f2fde38b14610475578063f9f411d81461049157610158565b80638da5cb5b1461031d57806395d89b411461033b5780639cc7900c14610359578063a22cb46514610375578063ac42131614610391578063b88d4fde146103ad57610158565b806323b872dd1161011557806323b872dd1461024457806342842e0e146102605780636352211e1461027c57806370a08231146102ac578063715018a6146102dc57806371b3a758146102e657610158565b806301ffc9a71461015d57806306fdde031461018d578063081812fc146101ab578063095ea7b3146101db5780630a36f608146101f757806316a0042c14610228575b600080fd5b61017760048036038101906101729190612bfe565b6104c1565b6040516101849190612c46565b60405180910390f35b6101956105a3565b6040516101a29190612cf1565b60405180910390f35b6101c560048036038101906101c09190612d49565b610635565b6040516101d29190612db7565b60405180910390f35b6101f560048036038101906101f09190612dfe565b61067b565b005b610211600480360381019061020c9190612e3e565b610792565b60405161021f929190613188565b60405180910390f35b610242600480360381019061023d9190612d49565b610b7a565b005b61025e600480360381019061025991906131bf565b610d12565b005b61027a600480360381019061027591906131bf565b610d72565b005b61029660048036038101906102919190612d49565b610d92565b6040516102a39190612db7565b60405180910390f35b6102c660048036038101906102c19190612e3e565b610e18565b6040516102d39190613221565b60405180910390f35b6102e4610ecf565b005b61030060048036038101906102fb9190612d49565b610ee3565b60405161031498979695949392919061324b565b60405180910390f35b6103256110fd565b6040516103329190612db7565b60405180910390f35b610343611127565b6040516103509190612cf1565b60405180910390f35b610373600480360381019061036e9190613413565b6111b9565b005b61038f600480360381019061038a919061350e565b61141e565b005b6103ab60048036038101906103a69190612d49565b611434565b005b6103c760048036038101906103c291906135ef565b6115be565b005b6103e360048036038101906103de9190612d49565b611620565b005b6103ff60048036038101906103fa9190612d49565b611799565b60405161040c9190612cf1565b60405180910390f35b61042f600480360381019061042a9190612e3e565b611812565b60405161043c9190613672565b60405180910390f35b61045f600480360381019061045a9190613694565b611bf6565b60405161046c9190612c46565b60405180910390f35b61048f600480360381019061048a9190612e3e565b611c8a565b005b6104ab60048036038101906104a69190612dfe565b611d0d565b6040516104b89190613221565b60405180910390f35b60007f80ac58cd000000000000000000000000000000000000000000000000000000007bffffffffffffffffffffffffffffffffffffffffffffffffffffffff1916827bffffffffffffffffffffffffffffffffffffffffffffffffffffffff1916148061058c57507f5b5e139f000000000000000000000000000000000000000000000000000000007bffffffffffffffffffffffffffffffffffffffffffffffffffffffff1916827bffffffffffffffffffffffffffffffffffffffffffffffffffffffff1916145b8061059c575061059b82611d3e565b5b9050919050565b6060600080546105b290613703565b80601f01602080910402602001604051908101604052809291908181526020018280546105de90613703565b801561062b5780601f106106005761010080835404028352916020019161062b565b820191906000526020600020905b81548152906001019060200180831161060e57829003601f168201915b5050505050905090565b600061064082611da8565b6004600083815260200190815260200160002060009054906101000a900473ffffffffffffffffffffffffffffffffffffffff169050919050565b600061068682610d92565b90508073ffffffffffffffffffffffffffffffffffffffff168373ffffffffffffffffffffffffffffffffffffffff16036106f6576040517f08c379a00000000000000000000000000000000000000000000000000000000081526004016106ed906137a6565b60405180910390fd5b8073ffffffffffffffffffffffffffffffffffffffff16610715611df3565b73ffffffffffffffffffffffffffffffffffffffff16148061074457506107438161073e611df3565b611bf6565b5b610783576040517f08c379a000000000000000000000000000000000000000000000000000000000815260040161077a90613838565b60405180910390fd5b61078d8383611dfb565b505050565b6060806000600960008573ffffffffffffffffffffffffffffffffffffffff1673ffffffffffffffffffffffffffffffffffffffff16815260200190815260200160002080548060200260200160405190810160405280929190818152602001828054801561082057602002820191906000526020600020905b81548152602001906001019080831161080c575b505050505090506000815167ffffffffffffffff811115610844576108436132e8565b5b60405190808252806020026020018201604052801561087d57816020015b61086a612b23565b8152602001906001900390816108625790505b50905060005b8251811015610b6c57600860008483815181106108a3576108a2613858565b5b60200260200101518152602001908152602001600020604051806101000160405290816000820160009054906101000a900473ffffffffffffffffffffffffffffffffffffffff1673ffffffffffffffffffffffffffffffffffffffff1673ffffffffffffffffffffffffffffffffffffffff16815260200160018201805461092b90613703565b80601f016020809104026020016040519081016040528092919081815260200182805461095790613703565b80156109a45780601f10610979576101008083540402835291602001916109a4565b820191906000526020600020905b81548152906001019060200180831161098757829003601f168201915b50505050508152602001600282015481526020016003820160009054906101000a900460ff161515151581526020016004820180546109e290613703565b80601f0160208091040260200160405190810160405280929190818152602001828054610a0e90613703565b8015610a5b5780601f10610a3057610100808354040283529160200191610a5b565b820191906000526020600020905b815481529060010190602001808311610a3e57829003601f168201915b50505050508152602001600582018054610a7490613703565b80601f0160208091040260200160405190810160405280929190818152602001828054610aa090613703565b8015610aed5780601f10610ac257610100808354040283529160200191610aed565b820191906000526020600020905b815481529060010190602001808311610ad057829003601f168201915b505050505081526020016006820160009054906101000a900460ff166002811115610b1b57610b1a612fbd565b5b6002811115610b2d57610b2c612fbd565b5b8152602001600782015481525050828281518110610b4e57610b4d613858565b5b60200260200101819052508080610b64906138b6565b915050610883565b508181935093505050915091565b610b8381611eb4565b610bc2576040517f08c379a0000000000000000000000000000000000000000000000000000000008152600401610bb99061394a565b60405180910390fd5b3373ffffffffffffffffffffffffffffffffffffffff16610be282610d92565b73ffffffffffffffffffffffffffffffffffffffff1614610c38576040517f08c379a0000000000000000000000000000000000000000000000000000000008152600401610c2f906139b6565b60405180910390fd5b6008600082815260200190815260200160002060030160009054906101000a900460ff1615610c9c576040517f08c379a0000000000000000000000000000000000000000000000000000000008152600401610c9390613a22565b60405180910390fd5b60016008600083815260200190815260200160002060030160006101000a81548160ff0219169083151502179055503373ffffffffffffffffffffffffffffffffffffffff16817fbdf496d41407769ff71ececae6537542760506406fb62a651e7ac685c637bd8360405160405180910390a350565b610d23610d1d611df3565b82611ef5565b610d62576040517f08c379a0000000000000000000000000000000000000000000000000000000008152600401610d5990613ab4565b60405180910390fd5b610d6d838383611f8a565b505050565b610d8d838383604051806020016040528060008152506115be565b505050565b600080610d9e83612283565b9050600073ffffffffffffffffffffffffffffffffffffffff168173ffffffffffffffffffffffffffffffffffffffff1603610e0f576040517f08c379a0000000000000000000000000000000000000000000000000000000008152600401610e0690613b20565b60405180910390fd5b80915050919050565b60008073ffffffffffffffffffffffffffffffffffffffff168273ffffffffffffffffffffffffffffffffffffffff1603610e88576040517f08c379a0000000000000000000000000000000000000000000000000000000008152600401610e7f90613bb2565b60405180910390fd5b600360008373ffffffffffffffffffffffffffffffffffffffff1673ffffffffffffffffffffffffffffffffffffffff168152602001908152602001600020549050919050565b610ed76122c0565b610ee1600061233e565b565b60086020528060005260406000206000915090508060000160009054906101000a900473ffffffffffffffffffffffffffffffffffffffff1690806001018054610f2c90613703565b80601f0160208091040260200160405190810160405280929190818152602001828054610f5890613703565b8015610fa55780601f10610f7a57610100808354040283529160200191610fa5565b820191906000526020600020905b815481529060010190602001808311610f8857829003601f168201915b5050505050908060020154908060030160009054906101000a900460ff1690806004018054610fd390613703565b80601f0160208091040260200160405190810160405280929190818152602001828054610fff90613703565b801561104c5780601f106110215761010080835404028352916020019161104c565b820191906000526020600020905b81548152906001019060200180831161102f57829003601f168201915b50505050509080600501805461106190613703565b80601f016020809104026020016040519081016040528092919081815260200182805461108d90613703565b80156110da5780601f106110af576101008083540402835291602001916110da565b820191906000526020600020905b8154815290600101906020018083116110bd57829003601f168201915b5050505050908060060160009054906101000a900460ff16908060070154905088565b6000600660009054906101000a900473ffffffffffffffffffffffffffffffffffffffff16905090565b60606001805461113690613703565b80601f016020809104026020016040519081016040528092919081815260200182805461116290613703565b80156111af5780601f10611184576101008083540402835291602001916111af565b820191906000526020600020905b81548152906001019060200180831161119257829003601f168201915b5050505050905090565b6111c36007612404565b60006111cf600761241a565b90506111db3382612428565b6040518061010001604052808773ffffffffffffffffffffffffffffffffffffffff1681526020018681526020018581526020016000151581526020018481526020018381526020016000600281111561123857611237612fbd565b5b8152602001428152506008600083815260200190815260200160002060008201518160000160006101000a81548173ffffffffffffffffffffffffffffffffffffffff021916908373ffffffffffffffffffffffffffffffffffffffff16021790555060208201518160010190816112b09190613d7e565b506040820151816002015560608201518160030160006101000a81548160ff02191690831515021790555060808201518160040190816112f09190613d7e565b5060a08201518160050190816113069190613d7e565b5060c08201518160060160006101000a81548160ff0219169083600281111561133257611331612fbd565b5b021790555060e08201518160070155905050600960003373ffffffffffffffffffffffffffffffffffffffff1673ffffffffffffffffffffffffffffffffffffffff1681526020019081526020016000208190806001815401808255809150506001900390600052602060002001600090919091909150558573ffffffffffffffffffffffffffffffffffffffff163373ffffffffffffffffffffffffffffffffffffffff16827f2583442b75ec473d2f13ba2363beaca974b370aeeb761628a9d7d789bc7ff54a8888888860405161140e9493929190613e50565b60405180910390a4505050505050565b611430611429611df3565b8383612645565b5050565b61143d81611eb4565b61147c576040517f08c379a00000000000000000000000000000000000000000000000000000000081526004016114739061394a565b60405180910390fd5b3373ffffffffffffffffffffffffffffffffffffffff1661149c82610d92565b73ffffffffffffffffffffffffffffffffffffffff16146114f2576040517f08c379a00000000000000000000000000000000000000000000000000000000081526004016114e9906139b6565b60405180910390fd5b6000600281111561150657611505612fbd565b5b6008600083815260200190815260200160002060060160009054906101000a900460ff16600281111561153c5761153b612fbd565b5b1461157c576040517f08c379a000000000000000000000000000000000000000000000000000000000815260040161157390613ef6565b60405180910390fd5b60016008600083815260200190815260200160002060060160006101000a81548160ff021916908360028111156115b6576115b5612fbd565b5b021790555050565b6115cf6115c9611df3565b83611ef5565b61160e576040517f08c379a000000000000000000000000000000000000000000000000000000000815260040161160590613ab4565b60405180910390fd5b61161a848484846127b1565b50505050565b61162981611eb4565b611668576040517f08c379a000000000000000000000000000000000000000000000000000000000815260040161165f9061394a565b60405180910390fd5b6000600281111561167c5761167b612fbd565b5b6008600083815260200190815260200160002060060160009054906101000a900460ff1660028111156116b2576116b1612fbd565b5b146116f2576040517f08c379a00000000000000000000000000000000000000000000000000000000081526004016116e990613ef6565b60405180910390fd5b61025860086000838152602001908152602001600020600701546117169190613f16565b4211611757576040517f08c379a000000000000000000000000000000000000000000000000000000000815260040161174e90613f96565b60405180910390fd5b60026008600083815260200190815260200160002060060160006101000a81548160ff0219169083600281111561179157611790612fbd565b5b021790555050565b60606117a482611eb4565b6117e3576040517f08c379a00000000000000000000000000000000000000000000000000000000081526004016117da9061394a565b60405180910390fd5b6117ec8261280d565b6040516020016117fc9190614064565b6040516020818303038152906040529050919050565b60606000600960008473ffffffffffffffffffffffffffffffffffffffff1673ffffffffffffffffffffffffffffffffffffffff16815260200190815260200160002080548060200260200160405190810160405280929190818152602001828054801561189f57602002820191906000526020600020905b81548152602001906001019080831161188b575b505050505090506000815167ffffffffffffffff8111156118c3576118c26132e8565b5b6040519080825280602002602001820160405280156118fc57816020015b6118e9612b23565b8152602001906001900390816118e15790505b50905060005b8251811015611beb576008600084838151811061192257611921613858565b5b60200260200101518152602001908152602001600020604051806101000160405290816000820160009054906101000a900473ffffffffffffffffffffffffffffffffffffffff1673ffffffffffffffffffffffffffffffffffffffff1673ffffffffffffffffffffffffffffffffffffffff1681526020016001820180546119aa90613703565b80601f01602080910402602001604051908101604052809291908181526020018280546119d690613703565b8015611a235780601f106119f857610100808354040283529160200191611a23565b820191906000526020600020905b815481529060010190602001808311611a0657829003601f168201915b50505050508152602001600282015481526020016003820160009054906101000a900460ff16151515158152602001600482018054611a6190613703565b80601f0160208091040260200160405190810160405280929190818152602001828054611a8d90613703565b8015611ada5780601f10611aaf57610100808354040283529160200191611ada565b820191906000526020600020905b815481529060010190602001808311611abd57829003601f168201915b50505050508152602001600582018054611af390613703565b80601f0160208091040260200160405190810160405280929190818152602001828054611b1f90613703565b8015611b6c5780601f10611b4157610100808354040283529160200191611b6c565b820191906000526020600020905b815481529060010190602001808311611b4f57829003601f168201915b505050505081526020016006820160009054906101000a900460ff166002811115611b9a57611b99612fbd565b5b6002811115611bac57611bab612fbd565b5b8152602001600782015481525050828281518110611bcd57611bcc613858565b5b60200260200101819052508080611be3906138b6565b915050611902565b508092505050919050565b6000600560008473ffffffffffffffffffffffffffffffffffffffff1673ffffffffffffffffffffffffffffffffffffffff16815260200190815260200160002060008373ffffffffffffffffffffffffffffffffffffffff1673ffffffffffffffffffffffffffffffffffffffff16815260200190815260200160002060009054906101000a900460ff16905092915050565b611c926122c0565b600073ffffffffffffffffffffffffffffffffffffffff168173ffffffffffffffffffffffffffffffffffffffff1603611d01576040517f08c379a0000000000000000000000000000000000000000000000000000000008152600401611cf8906140f8565b60405180910390fd5b611d0a8161233e565b50565b60096020528160005260406000208181548110611d2957600080fd5b90600052602060002001600091509150505481565b60007f01ffc9a7000000000000000000000000000000000000000000000000000000007bffffffffffffffffffffffffffffffffffffffffffffffffffffffff1916827bffffffffffffffffffffffffffffffffffffffffffffffffffffffff1916149050919050565b611db181611eb4565b611df0576040517f08c379a0000000000000000000000000000000000000000000000000000000008152600401611de790613b20565b60405180910390fd5b50565b600033905090565b816004600083815260200190815260200160002060006101000a81548173ffffffffffffffffffffffffffffffffffffffff021916908373ffffffffffffffffffffffffffffffffffffffff160217905550808273ffffffffffffffffffffffffffffffffffffffff16611e6e83610d92565b73ffffffffffffffffffffffffffffffffffffffff167f8c5be1e5ebec7d5bd14f71427d1e84f3dd0314c0f7b2291e5b200ac8c7c3b92560405160405180910390a45050565b60008073ffffffffffffffffffffffffffffffffffffffff16611ed683612283565b73ffffffffffffffffffffffffffffffffffffffff1614159050919050565b600080611f0183610d92565b90508073ffffffffffffffffffffffffffffffffffffffff168473ffffffffffffffffffffffffffffffffffffffff161480611f435750611f428185611bf6565b5b80611f8157508373ffffffffffffffffffffffffffffffffffffffff16611f6984610635565b73ffffffffffffffffffffffffffffffffffffffff16145b91505092915050565b8273ffffffffffffffffffffffffffffffffffffffff16611faa82610d92565b73ffffffffffffffffffffffffffffffffffffffff1614612000576040517f08c379a0000000000000000000000000000000000000000000000000000000008152600401611ff79061418a565b60405180910390fd5b600073ffffffffffffffffffffffffffffffffffffffff168273ffffffffffffffffffffffffffffffffffffffff160361206f576040517f08c379a00000000000000000000000000000000000000000000000000000000081526004016120669061421c565b60405180910390fd5b61207c838383600161296d565b8273ffffffffffffffffffffffffffffffffffffffff1661209c82610d92565b73ffffffffffffffffffffffffffffffffffffffff16146120f2576040517f08c379a00000000000000000000000000000000000000000000000000000000081526004016120e99061418a565b60405180910390fd5b6004600082815260200190815260200160002060006101000a81549073ffffffffffffffffffffffffffffffffffffffff02191690556001600360008573ffffffffffffffffffffffffffffffffffffffff1673ffffffffffffffffffffffffffffffffffffffff168152602001908152602001600020600082825403925050819055506001600360008473ffffffffffffffffffffffffffffffffffffffff1673ffffffffffffffffffffffffffffffffffffffff16815260200190815260200160002060008282540192505081905550816002600083815260200190815260200160002060006101000a81548173ffffffffffffffffffffffffffffffffffffffff021916908373ffffffffffffffffffffffffffffffffffffffff160217905550808273ffffffffffffffffffffffffffffffffffffffff168473ffffffffffffffffffffffffffffffffffffffff167fddf252ad1be2c89b69c2b068fc378daa952ba7f163c4a11628f55a4df523b3ef60405160405180910390a461227e8383836001612973565b505050565b60006002600083815260200190815260200160002060009054906101000a900473ffffffffffffffffffffffffffffffffffffffff169050919050565b6122c8611df3565b73ffffffffffffffffffffffffffffffffffffffff166122e66110fd565b73ffffffffffffffffffffffffffffffffffffffff161461233c576040517f08c379a000000000000000000000000000000000000000000000000000000000815260040161233390614288565b60405180910390fd5b565b6000600660009054906101000a900473ffffffffffffffffffffffffffffffffffffffff16905081600660006101000a81548173ffffffffffffffffffffffffffffffffffffffff021916908373ffffffffffffffffffffffffffffffffffffffff1602179055508173ffffffffffffffffffffffffffffffffffffffff168173ffffffffffffffffffffffffffffffffffffffff167f8be0079c531659141344cd1fd0a4f28419497f9722a3daafe3b4186f6b6457e060405160405180910390a35050565b6001816000016000828254019250508190555050565b600081600001549050919050565b600073ffffffffffffffffffffffffffffffffffffffff168273ffffffffffffffffffffffffffffffffffffffff1603612497576040517f08c379a000000000000000000000000000000000000000000000000000000000815260040161248e906142f4565b60405180910390fd5b6124a081611eb4565b156124e0576040517f08c379a00000000000000000000000000000000000000000000000000000000081526004016124d790614360565b60405180910390fd5b6124ee60008383600161296d565b6124f781611eb4565b15612537576040517f08c379a000000000000000000000000000000000000000000000000000000000815260040161252e90614360565b60405180910390fd5b6001600360008473ffffffffffffffffffffffffffffffffffffffff1673ffffffffffffffffffffffffffffffffffffffff16815260200190815260200160002060008282540192505081905550816002600083815260200190815260200160002060006101000a81548173ffffffffffffffffffffffffffffffffffffffff021916908373ffffffffffffffffffffffffffffffffffffffff160217905550808273ffffffffffffffffffffffffffffffffffffffff16600073ffffffffffffffffffffffffffffffffffffffff167fddf252ad1be2c89b69c2b068fc378daa952ba7f163c4a11628f55a4df523b3ef60405160405180910390a4612641600083836001612973565b5050565b8173ffffffffffffffffffffffffffffffffffffffff168373ffffffffffffffffffffffffffffffffffffffff16036126b3576040517f08c379a00000000000000000000000000000000000000000000000000000000081526004016126aa906143cc565b60405180910390fd5b80600560008573ffffffffffffffffffffffffffffffffffffffff1673ffffffffffffffffffffffffffffffffffffffff16815260200190815260200160002060008473ffffffffffffffffffffffffffffffffffffffff1673ffffffffffffffffffffffffffffffffffffffff16815260200190815260200160002060006101000a81548160ff0219169083151502179055508173ffffffffffffffffffffffffffffffffffffffff168373ffffffffffffffffffffffffffffffffffffffff167f17307eab39ab6107e8899845ad3d59bd9653f200f220920489ca2b5937696c31836040516127a49190612c46565b60405180910390a3505050565b6127bc848484611f8a565b6127c884848484612979565b612807576040517f08c379a00000000000000000000000000000000000000000000000000000000081526004016127fe9061445e565b60405180910390fd5b50505050565b606060008203612854576040518060400160405280600181526020017f30000000000000000000000000000000000000000000000000000000000000008152509050612968565b600082905060005b6000821461288657808061286f906138b6565b915050600a8261287f91906144ad565b915061285c565b60008167ffffffffffffffff8111156128a2576128a16132e8565b5b6040519080825280601f01601f1916602001820160405280156128d45781602001600182028036833780820191505090505b5090505b60008514612961576001826128ed91906144de565b9150600a856128fc9190614512565b60306129089190613f16565b60f81b81838151811061291e5761291d613858565b5b60200101907effffffffffffffffffffffffffffffffffffffffffffffffffffffffffffff1916908160001a905350600a8561295a91906144ad565b94506128d8565b8093505050505b919050565b50505050565b50505050565b600061299a8473ffffffffffffffffffffffffffffffffffffffff16612b00565b15612af3578373ffffffffffffffffffffffffffffffffffffffff1663150b7a026129c3611df3565b8786866040518563ffffffff1660e01b81526004016129e59493929190614598565b6020604051808303816000875af1925050508015612a2157506040513d601f19601f82011682018060405250810190612a1e91906145f9565b60015b612aa3573d8060008114612a51576040519150601f19603f3d011682016040523d82523d6000602084013e612a56565b606091505b506000815103612a9b576040517f08c379a0000000000000000000000000000000000000000000000000000000008152600401612a929061445e565b60405180910390fd5b805181602001fd5b63150b7a0260e01b7bffffffffffffffffffffffffffffffffffffffffffffffffffffffff1916817bffffffffffffffffffffffffffffffffffffffffffffffffffffffff191614915050612af8565b600190505b949350505050565b6000808273ffffffffffffffffffffffffffffffffffffffff163b119050919050565b604051806101000160405280600073ffffffffffffffffffffffffffffffffffffffff1681526020016060815260200160008152602001600015158152602001606081526020016060815260200160006002811115612b8557612b84612fbd565b5b8152602001600081525090565b6000604051905090565b600080fd5b600080fd5b60007fffffffff0000000000000000000000000000000000000000000000000000000082169050919050565b612bdb81612ba6565b8114612be657600080fd5b50565b600081359050612bf881612bd2565b92915050565b600060208284031215612c1457612c13612b9c565b5b6000612c2284828501612be9565b91505092915050565b60008115159050919050565b612c4081612c2b565b82525050565b6000602082019050612c5b6000830184612c37565b92915050565b600081519050919050565b600082825260208201905092915050565b60005b83811015612c9b578082015181840152602081019050612c80565b60008484015250505050565b6000601f19601f8301169050919050565b6000612cc382612c61565b612ccd8185612c6c565b9350612cdd818560208601612c7d565b612ce681612ca7565b840191505092915050565b60006020820190508181036000830152612d0b8184612cb8565b905092915050565b6000819050919050565b612d2681612d13565b8114612d3157600080fd5b50565b600081359050612d4381612d1d565b92915050565b600060208284031215612d5f57612d5e612b9c565b5b6000612d6d84828501612d34565b91505092915050565b600073ffffffffffffffffffffffffffffffffffffffff82169050919050565b6000612da182612d76565b9050919050565b612db181612d96565b82525050565b6000602082019050612dcc6000830184612da8565b92915050565b612ddb81612d96565b8114612de657600080fd5b50565b600081359050612df881612dd2565b92915050565b60008060408385031215612e1557612e14612b9c565b5b6000612e2385828601612de9565b9250506020612e3485828601612d34565b9150509250929050565b600060208284031215612e5457612e53612b9c565b5b6000612e6284828501612de9565b91505092915050565b600081519050919050565b600082825260208201905092915050565b6000819050602082019050919050565b612ea081612d13565b82525050565b6000612eb28383612e97565b60208301905092915050565b6000602082019050919050565b6000612ed682612e6b565b612ee08185612e76565b9350612eeb83612e87565b8060005b83811015612f1c578151612f038882612ea6565b9750612f0e83612ebe565b925050600181019050612eef565b5085935050505092915050565b600081519050919050565b600082825260208201905092915050565b6000819050602082019050919050565b612f5e81612d96565b82525050565b600082825260208201905092915050565b6000612f8082612c61565b612f8a8185612f64565b9350612f9a818560208601612c7d565b612fa381612ca7565b840191505092915050565b612fb781612c2b565b82525050565b7f4e487b7100000000000000000000000000000000000000000000000000000000600052602160045260246000fd5b60038110612ffd57612ffc612fbd565b5b50565b600081905061300e82612fec565b919050565b600061301e82613000565b9050919050565b61302e81613013565b82525050565b60006101008301600083015161304d6000860182612f55565b50602083015184820360208601526130658282612f75565b915050604083015161307a6040860182612e97565b50606083015161308d6060860182612fae565b50608083015184820360808601526130a58282612f75565b91505060a083015184820360a08601526130bf8282612f75565b91505060c08301516130d460c0860182613025565b5060e08301516130e760e0860182612e97565b508091505092915050565b60006130fe8383613034565b905092915050565b6000602082019050919050565b600061311e82612f29565b6131288185612f34565b93508360208202850161313a85612f45565b8060005b85811015613176578484038952815161315785826130f2565b945061316283613106565b925060208a0199505060018101905061313e565b50829750879550505050505092915050565b600060408201905081810360008301526131a28185612ecb565b905081810360208301526131b68184613113565b90509392505050565b6000806000606084860312156131d8576131d7612b9c565b5b60006131e686828701612de9565b93505060206131f786828701612de9565b925050604061320886828701612d34565b9150509250925092565b61321b81612d13565b82525050565b60006020820190506132366000830184613212565b92915050565b61324581613013565b82525050565b600061010082019050613261600083018b612da8565b8181036020830152613273818a612cb8565b90506132826040830189613212565b61328f6060830188612c37565b81810360808301526132a18187612cb8565b905081810360a08301526132b58186612cb8565b90506132c460c083018561323c565b6132d160e0830184613212565b9998505050505050505050565b600080fd5b600080fd5b7f4e487b7100000000000000000000000000000000000000000000000000000000600052604160045260246000fd5b61332082612ca7565b810181811067ffffffffffffffff8211171561333f5761333e6132e8565b5b80604052505050565b6000613352612b92565b905061335e8282613317565b919050565b600067ffffffffffffffff82111561337e5761337d6132e8565b5b61338782612ca7565b9050602081019050919050565b82818337600083830152505050565b60006133b66133b184613363565b613348565b9050828152602081018484840111156133d2576133d16132e3565b5b6133dd848285613394565b509392505050565b600082601f8301126133fa576133f96132de565b5b813561340a8482602086016133a3565b91505092915050565b600080600080600060a0868803121561342f5761342e612b9c565b5b600061343d88828901612de9565b955050602086013567ffffffffffffffff81111561345e5761345d612ba1565b5b61346a888289016133e5565b945050604061347b88828901612d34565b935050606086013567ffffffffffffffff81111561349c5761349b612ba1565b5b6134a8888289016133e5565b925050608086013567ffffffffffffffff8111156134c9576134c8612ba1565b5b6134d5888289016133e5565b9150509295509295909350565b6134eb81612c2b565b81146134f657600080fd5b50565b600081359050613508816134e2565b92915050565b6000806040838503121561352557613524612b9c565b5b600061353385828601612de9565b9250506020613544858286016134f9565b9150509250929050565b600067ffffffffffffffff821115613569576135686132e8565b5b61357282612ca7565b9050602081019050919050565b600061359261358d8461354e565b613348565b9050828152602081018484840111156135ae576135ad6132e3565b5b6135b9848285613394565b509392505050565b600082601f8301126135d6576135d56132de565b5b81356135e684826020860161357f565b91505092915050565b6000806000806080858703121561360957613608612b9c565b5b600061361787828801612de9565b945050602061362887828801612de9565b935050604061363987828801612d34565b925050606085013567ffffffffffffffff81111561365a57613659612ba1565b5b613666878288016135c1565b91505092959194509250565b6000602082019050818103600083015261368c8184613113565b905092915050565b600080604083850312156136ab576136aa612b9c565b5b60006136b985828601612de9565b92505060206136ca85828601612de9565b9150509250929050565b7f4e487b7100000000000000000000000000000000000000000000000000000000600052602260045260246000fd5b6000600282049050600182168061371b57607f821691505b60208210810361372e5761372d6136d4565b5b50919050565b7f4552433732313a20617070726f76616c20746f2063757272656e74206f776e6560008201527f7200000000000000000000000000000000000000000000000000000000000000602082015250565b6000613790602183612c6c565b915061379b82613734565b604082019050919050565b600060208201905081810360008301526137bf81613783565b9050919050565b7f4552433732313a20617070726f76652063616c6c6572206973206e6f7420746f60008201527f6b656e206f776e6572206f7220617070726f76656420666f7220616c6c000000602082015250565b6000613822603d83612c6c565b915061382d826137c6565b604082019050919050565b6000602082019050818103600083015261385181613815565b9050919050565b7f4e487b7100000000000000000000000000000000000000000000000000000000600052603260045260246000fd5b7f4e487b7100000000000000000000000000000000000000000000000000000000600052601160045260246000fd5b60006138c182612d13565b91507fffffffffffffffffffffffffffffffffffffffffffffffffffffffffffffffff82036138f3576138f2613887565b5b600182019050919050565b7f546f6b656e20646f6573206e6f74206578697374000000000000000000000000600082015250565b6000613934601483612c6c565b915061393f826138fe565b602082019050919050565b6000602082019050818103600083015261396381613927565b9050919050565b7f4e6f742074686520746f6b656e206f776e657200000000000000000000000000600082015250565b60006139a0601383612c6c565b91506139ab8261396a565b602082019050919050565b600060208201905081810360008301526139cf81613993565b9050919050565b7f416c7265616479207265766f6b65640000000000000000000000000000000000600082015250565b6000613a0c600f83612c6c565b9150613a17826139d6565b602082019050919050565b60006020820190508181036000830152613a3b816139ff565b9050919050565b7f4552433732313a2063616c6c6572206973206e6f7420746f6b656e206f776e6560008201527f72206f7220617070726f76656400000000000000000000000000000000000000602082015250565b6000613a9e602d83612c6c565b9150613aa982613a42565b604082019050919050565b60006020820190508181036000830152613acd81613a91565b9050919050565b7f4552433732313a20696e76616c696420746f6b656e2049440000000000000000600082015250565b6000613b0a601883612c6c565b9150613b1582613ad4565b602082019050919050565b60006020820190508181036000830152613b3981613afd565b9050919050565b7f4552433732313a2061646472657373207a65726f206973206e6f74206120766160008201527f6c6964206f776e65720000000000000000000000000000000000000000000000602082015250565b6000613b9c602983612c6c565b9150613ba782613b40565b604082019050919050565b60006020820190508181036000830152613bcb81613b8f565b9050919050565b60008190508160005260206000209050919050565b60006020601f8301049050919050565b600082821b905092915050565b600060088302613c347fffffffffffffffffffffffffffffffffffffffffffffffffffffffffffffffff82613bf7565b613c3e8683613bf7565b95508019841693508086168417925050509392505050565b6000819050919050565b6000613c7b613c76613c7184612d13565b613c56565b612d13565b9050919050565b6000819050919050565b613c9583613c60565b613ca9613ca182613c82565b848454613c04565b825550505050565b600090565b613cbe613cb1565b613cc9818484613c8c565b505050565b5b81811015613ced57613ce2600082613cb6565b600181019050613ccf565b5050565b601f821115613d3257613d0381613bd2565b613d0c84613be7565b81016020851015613d1b578190505b613d2f613d2785613be7565b830182613cce565b50505b505050565b600082821c905092915050565b6000613d5560001984600802613d37565b1980831691505092915050565b6000613d6e8383613d44565b9150826002028217905092915050565b613d8782612c61565b67ffffffffffffffff811115613da057613d9f6132e8565b5b613daa8254613703565b613db5828285613cf1565b600060209050601f831160018114613de85760008415613dd6578287015190505b613de08582613d62565b865550613e48565b601f198416613df686613bd2565b60005b82811015613e1e57848901518255600182019150602085019450602081019050613df9565b86831015613e3b5784890151613e37601f891682613d44565b8355505b6001600288020188555050505b505050505050565b60006080820190508181036000830152613e6a8187612cb8565b9050613e796020830186613212565b8181036040830152613e8b8185612cb8565b90508181036060830152613e9f8184612cb8565b905095945050505050565b7f436f6e73656e74206e6f742070656e64696e6700000000000000000000000000600082015250565b6000613ee0601383612c6c565b9150613eeb82613eaa565b602082019050919050565b60006020820190508181036000830152613f0f81613ed3565b9050919050565b6000613f2182612d13565b9150613f2c83612d13565b9250828201905080821115613f4457613f43613887565b5b92915050565b7f546f6f206561726c7920746f206162616e646f6e000000000000000000000000600082015250565b6000613f80601483612c6c565b9150613f8b82613f4a565b602082019050919050565b60006020820190508181036000830152613faf81613f73565b9050919050565b600081905092915050565b7f68747470733a2f2f6170692e636f6e73656e7477616c6c65742e636f6d2f746f60008201527f6b656e2f00000000000000000000000000000000000000000000000000000000602082015250565b600061401d602483613fb6565b915061402882613fc1565b602482019050919050565b600061403e82612c61565b6140488185613fb6565b9350614058818560208601612c7d565b80840191505092915050565b600061406f82614010565b915061407b8284614033565b915081905092915050565b7f4f776e61626c653a206e6577206f776e657220697320746865207a65726f206160008201527f6464726573730000000000000000000000000000000000000000000000000000602082015250565b60006140e2602683612c6c565b91506140ed82614086565b604082019050919050565b60006020820190508181036000830152614111816140d5565b9050919050565b7f4552433732313a207472616e736665722066726f6d20696e636f72726563742060008201527f6f776e6572000000000000000000000000000000000000000000000000000000602082015250565b6000614174602583612c6c565b915061417f82614118565b604082019050919050565b600060208201905081810360008301526141a381614167565b9050919050565b7f4552433732313a207472616e7366657220746f20746865207a65726f2061646460008201527f7265737300000000000000000000000000000000000000000000000000000000602082015250565b6000614206602483612c6c565b9150614211826141aa565b604082019050919050565b60006020820190508181036000830152614235816141f9565b9050919050565b7f4f776e61626c653a2063616c6c6572206973206e6f7420746865206f776e6572600082015250565b6000614272602083612c6c565b915061427d8261423c565b602082019050919050565b600060208201905081810360008301526142a181614265565b9050919050565b7f4552433732313a206d696e7420746f20746865207a65726f2061646472657373600082015250565b60006142de602083612c6c565b91506142e9826142a8565b602082019050919050565b6000602082019050818103600083015261430d816142d1565b9050919050565b7f4552433732313a20746f6b656e20616c7265616479206d696e74656400000000600082015250565b600061434a601c83612c6c565b915061435582614314565b602082019050919050565b600060208201905081810360008301526143798161433d565b9050919050565b7f4552433732313a20617070726f766520746f2063616c6c657200000000000000600082015250565b60006143b6601983612c6c565b91506143c182614380565b602082019050919050565b600060208201905081810360008301526143e5816143a9565b9050919050565b7f4552433732313a207472616e7366657220746f206e6f6e20455243373231526560008201527f63656976657220696d706c656d656e7465720000000000000000000000000000602082015250565b6000614448603283612c6c565b9150614453826143ec565b604082019050919050565b600060208201905081810360008301526144778161443b565b9050919050565b7f4e487b7100000000000000000000000000000000000000000000000000000000600052601260045260246000fd5b60006144b882612d13565b91506144c383612d13565b9250826144d3576144d261447e565b5b828204905092915050565b60006144e982612d13565b91506144f483612d13565b925082820390508181111561450c5761450b613887565b5b92915050565b600061451d82612d13565b915061452883612d13565b9250826145385761453761447e565b5b828206905092915050565b600081519050919050565b600082825260208201905092915050565b600061456a82614543565b614574818561454e565b9350614584818560208601612c7d565b61458d81612ca7565b840191505092915050565b60006080820190506145ad6000830187612da8565b6145ba6020830186612da8565b6145c76040830185613212565b81810360608301526145d9818461455f565b905095945050505050565b6000815190506145f381612bd2565b92915050565b60006020828403121561460f5761460e612b9c565b5b600061461d848285016145e4565b9150509291505056fea264697066735822122091baf84c747d3d0e0c10a6aa905f997fd2e29222d77230b0d4e64a5fda5ed36864736f6c63430008140033",
  "linkReferences": {},
  "deployedLinkReferences": {}
}