{
  "_format": "hh-sol-artifact-1",
  "contractName": "ConsentToken",
  "sourceName": "contracts/ConsentToken.sol",
  "abi": [
    {
      "inputs": [],
      "stateMutability": "nonpayable",
      "type": "constructor"
    },
    {
      "anonymous": false,
      "inputs": [
        {
          "indexed": true,
          "internalType": "address",
          "name": "owner",
          "type": "address"
        },
        {
          "indexed": true,
          "internalType": "address",
          "name": "approved",
          "type": "address"
        },
        {
          "indexed": true,
          "internalType": "uint256",
          "name": "tokenId",
          "type": "uint256"
        }
      ],
      "name": "Approval",
      "type": "event"
    },
    {
      "anonymous": false,
      "inputs": [
        {
          "indexed": true,
          "internalType": "address",
          "name": "owner",
          "type": "address"
        },
        {
          "indexed": true,
          "internalType": "address",
          "name": "operator",
          "type": "address"
        },
        {
          "indexed": false,
          "internalType": "bool",
          "name": "approved",
          "type": "bool"
        }
      ],
      "name": "ApprovalForAll",
      "type": "event"
    },
    {
      "anonymous": false,
      "inputs": [
        {
          "indexed": true,
          "internalType": "uint256",
          "name": "tokenId",
          "type": "uint256"
        },
        {
          "indexed": true,
          "internalType": "address",
          "name": "issuer",
          "type": "address"
        },
        {
          "indexed": true,
          "internalType": "address",
          "name": "recipient",
          "type": "address"
        },
        {
          "indexed": false,
          "internalType": "string",
          "name": "purpose",
          "type": "string"
        },
        {
          "indexed": false,
          "internalType": "uint256",
          "name": "expiryDate",
          "type": "uint256"
        },
        {
          "indexed": false,
          "internalType": "string",
          "name": "website",
          "type": "string"
        },
        {
          "indexed": false,
          "internalType": "string",
          "name": "dataFields",
          "type": "string"
        }
      ],
      "name": "ConsentMinted",
      "type": "event"
    },
    {
      "anonymous": false,
      "inputs": [
        {
          "indexed": true,
          "internalType": "uint256",
          "name": "tokenId",
          "type": "uint256"
        },
        {
          "indexed": true,
          "internalType": "address",
          "name": "issuer",
          "type": "address"
        }
      ],
      "name": "ConsentRevoked",
      "type": "event"
    },
    {
      "anonymous": false,
      "inputs": [
        {
          "indexed": true,
          "internalType": "address",
          "name": "previousOwner",
          "type": "address"
        },
        {
          "indexed": true,
          "internalType": "address",
          "name": "newOwner",
          "type": "address"
        }
      ],
      "name": "OwnershipTransferred",
      "type": "event"
    },
    {
      "anonymous": false,
      "inputs": [
        {
          "indexed": true,
          "internalType": "address",
          "name": "from",
          "type": "address"
        },
        {
          "indexed": true,
          "internalType": "address",
          "name": "to",
          "type": "address"
        },
        {
          "indexed": true,
          "internalType": "uint256",
          "name": "tokenId",
          "type": "uint256"
        }
      ],
      "name": "Transfer",
      "type": "event"
    },
    {
      "inputs": [
        {
          "internalType": "address",
          "name": "to",
          "type": "address"
        },
        {
          "internalType": "uint256",
          "name": "tokenId",
          "type": "uint256"
        }
      ],
      "name": "approve",
      "outputs": [],
      "stateMutability": "nonpayable",
      "type": "function"
    },
    {
      "inputs": [
        {
          "internalType": "address",
          "name": "owner",
          "type": "address"
        }
      ],
      "name": "balanceOf",
      "outputs": [
        {
          "internalType": "uint256",
          "name": "",
          "type": "uint256"
        }
      ],
      "stateMutability": "view",
      "type": "function"
    },
    {
      "inputs": [
        {
          "internalType": "uint256",
          "name": "",
          "type": "uint256"
        }
      ],
      "name": "consentData",
      "outputs": [
        {
          "internalType": "address",
          "name": "recipient",
          "type": "address"
        },
        {
          "internalType": "string",
          "name": "purpose",
          "type": "string"
        },
        {
          "internalType": "uint256",
          "name": "expiryDate",
          "type": "uint256"
        },
        {
          "internalType": "bool",
          "name": "isRevoked",
          "type": "bool"
        },
        {
          "internalType": "string",
          "name": "website",
          "type": "string"
        },
        {
          "internalType": "string",
          "name": "dataFields",
          "type": "string"
        }
      ],
      "stateMutability": "view",
      "type": "function"
    },
    {
      "inputs": [
        {
          "internalType": "uint256",
          "name": "tokenId",
          "type": "uint256"
        }
      ],
      "name": "getApproved",
      "outputs": [
        {
          "internalType": "address",
          "name": "",
          "type": "address"
        }
      ],
      "stateMutability": "view",
      "type": "function"
    },
    {
      "inputs": [
        {
          "internalType": "address",
          "name": "owner",
          "type": "address"
        }
      ],
      "name": "getMyConsents",
      "outputs": [
        {
          "components": [
            {
              "internalType": "address",
              "name": "recipient",
              "type": "address"
            },
            {
              "internalType": "string",
              "name": "purpose",
              "type": "string"
            },
            {
              "internalType": "uint256",
              "name": "expiryDate",
              "type": "uint256"
            },
            {
              "internalType": "bool",
              "name": "isRevoked",
              "type": "bool"
            },
            {
              "internalType": "string",
              "name": "website",
              "type": "string"
            },
            {
              "internalType": "string",
              "name": "dataFields",
              "type": "string"
            }
          ],
          "internalType": "struct ConsentToken.ConsentData[]",
          "name": "",
          "type": "tuple[]"
        }
      ],
      "stateMutability": "view",
      "type": "function"
    },
    {
      "inputs": [
        {
          "internalType": "address",
          "name": "owner",
          "type": "address"
        },
        {
          "internalType": "address",
          "name": "operator",
          "type": "address"
        }
      ],
      "name": "isApprovedForAll",
      "outputs": [
        {
          "internalType": "bool",
          "name": "",
          "type": "bool"
        }
      ],
      "stateMutability": "view",
      "type": "function"
    },
    {
      "inputs": [
        {
          "internalType": "address",
          "name": "recipient",
          "type": "address"
        },
        {
          "internalType": "string",
          "name": "purpose",
          "type": "string"
        },
        {
          "internalType": "uint256",
          "name": "expiryDate",
          "type": "uint256"
        },
        {
          "internalType": "string",
          "name": "website",
          "type": "string"
        },
        {
          "internalType": "string",
          "name": "dataFields",
          "type": "string"
        }
      ],
      "name": "mintConsent",
      "outputs": [],
      "stateMutability": "nonpayable",
      "type": "function"
    },
    {
      "inputs": [],
      "name": "name",
      "outputs": [
        {
          "internalType": "string",
          "name": "",
          "type": "string"
        }
      ],
      "stateMutability": "view",
      "type": "function"
    },
    {
      "inputs": [],
      "name": "owner",
      "outputs": [
        {
          "internalType": "address",
          "name": "",
          "type": "address"
        }
      ],
      "stateMutability": "view",
      "type": "function"
    },
    {
      "inputs": [
        {
          "internalType": "uint256",
          "name": "tokenId",
          "type": "uint256"
        }
      ],
      "name": "ownerOf",
      "outputs": [
        {
          "internalType": "address",
          "name": "",
          "type": "address"
        }
      ],
      "stateMutability": "view",
      "type": "function"
    },
    {
      "inputs": [],
      "name": "renounceOwnership",
      "outputs": [],
      "stateMutability": "nonpayable",
      "type": "function"
    },
    {
      "inputs": [
        {
          "internalType": "uint256",
          "name": "tokenId",
          "type": "uint256"
        }
      ],
      "name": "revokeConsent",
      "outputs": [],
      "stateMutability": "nonpayable",
      "type": "function"
    },
    {
      "inputs": [
        {
          "internalType": "address",
          "name": "from",
          "type": "address"
        },
        {
          "internalType": "address",
          "name": "to",
          "type": "address"
        },
        {
          "internalType": "uint256",
          "name": "tokenId",
          "type": "uint256"
        }
      ],
      "name": "safeTransferFrom",
      "outputs": [],
      "stateMutability": "nonpayable",
      "type": "function"
    },
    {
      "inputs": [
        {
          "internalType": "address",
          "name": "from",
          "type": "address"
        },
        {
          "internalType": "address",
          "name": "to",
          "type": "address"
        },
        {
          "internalType": "uint256",
          "name": "tokenId",
          "type": "uint256"
        },
        {
          "internalType": "bytes",
          "name": "data",
          "type": "bytes"
        }
      ],
      "name": "safeTransferFrom",
      "outputs": [],
      "stateMutability": "nonpayable",
      "type": "function"
    },
    {
      "inputs": [
        {
          "internalType": "address",
          "name": "operator",
          "type": "address"
        },
        {
          "internalType": "bool",
          "name": "approved",
          "type": "bool"
        }
      ],
      "name": "setApprovalForAll",
      "outputs": [],
      "stateMutability": "nonpayable",
      "type": "function"
    },
    {
      "inputs": [
        {
          "internalType": "bytes4",
          "name": "interfaceId",
          "type": "bytes4"
        }
      ],
      "name": "supportsInterface",
      "outputs": [
        {
          "internalType": "bool",
          "name": "",
          "type": "bool"
        }
      ],
      "stateMutability": "view",
      "type": "function"
    },
    {
      "inputs": [],
      "name": "symbol",
      "outputs": [
        {
          "internalType": "string",
          "name": "",
          "type": "string"
        }
      ],
      "stateMutability": "view",
      "type": "function"
    },
    {
      "inputs": [
        {
          "internalType": "uint256",
          "name": "tokenId",
          "type": "uint256"
        }
      ],
      "name": "tokenURI",
      "outputs": [
        {
          "internalType": "string",
          "name": "",
          "type": "string"
        }
      ],
      "stateMutability": "view",
      "type": "function"
    },
    {
      "inputs": [
        {
          "internalType": "address",
          "name": "from",
          "type": "address"
        },
        {
          "internalType": "address",
          "name": "to",
          "type": "address"
        },
        {
          "internalType": "uint256",
          "name": "tokenId",
          "type": "uint256"
        }
      ],
      "name": "transferFrom",
      "outputs": [],
      "stateMutability": "nonpayable",
      "type": "function"
    },
    {
      "inputs": [
        {
          "internalType": "address",
          "name": "newOwner",
          "type": "address"
        }
      ],
      "name": "transferOwnership",
      "outputs": [],
      "stateMutability": "nonpayable",
      "type": "function"
    },
    {
      "inputs": [
        {
          "internalType": "address",
          "name": "",
          "type": "address"
        },
        {
          "internalType": "uint256",
          "name": "",
          "type": "uint256"
        }
      ],
      "name": "userTokens",
      "outputs": [
        {
          "internalType": "uint256",
          "name": "",
          "type": "uint256"
        }
      ],
      "stateMutability": "view",
      "type": "function"
    }
  ],
  "bytecode": "0x60806040523480156200001157600080fd5b506040518060400160405280600d81526020017f436f6e73656e7420546f6b656e000000000000000000000000000000000000008152506040518060400160405280600781526020017f434f4e53454e540000000000000000000000000000000000000000000000000081525081600090816200008f919062000412565b508060019081620000a1919062000412565b505050620000c4620000b8620000ca60201b60201c565b620000d260201b60201c565b620004f9565b600033905090565b6000600660009054906101000a900473ffffffffffffffffffffffffffffffffffffffff16905081600660006101000a81548173ffffffffffffffffffffffffffffffffffffffff021916908373ffffffffffffffffffffffffffffffffffffffff1602179055508173ffffffffffffffffffffffffffffffffffffffff168173ffffffffffffffffffffffffffffffffffffffff167f8be0079c531659141344cd1fd0a4f28419497f9722a3daafe3b4186f6b6457e060405160405180910390a35050565b600081519050919050565b7f4e487b7100000000000000000000000000000000000000000000000000000000600052604160045260246000fd5b7f4e487b7100000000000000000000000000000000000000000000000000000000600052602260045260246000fd5b600060028204905060018216806200021a57607f821691505b60208210810362000230576200022f620001d2565b5b50919050565b60008190508160005260206000209050919050565b60006020601f8301049050919050565b600082821b905092915050565b6000600883026200029a7fffffffffffffffffffffffffffffffffffffffffffffffffffffffffffffffff826200025b565b620002a686836200025b565b95508019841693508086168417925050509392505050565b6000819050919050565b6000819050919050565b6000620002f3620002ed620002e784620002be565b620002c8565b620002be565b9050919050565b6000819050919050565b6200030f83620002d2565b620003276200031e82620002fa565b84845462000268565b825550505050565b600090565b6200033e6200032f565b6200034b81848462000304565b505050565b5b8181101562000373576200036760008262000334565b60018101905062000351565b5050565b601f821115620003c2576200038c8162000236565b62000397846200024b565b81016020851015620003a7578190505b620003bf620003b6856200024b565b83018262000350565b50505b505050565b600082821c905092915050565b6000620003e760001984600802620003c7565b1980831691505092915050565b6000620004028383620003d4565b9150826002028217905092915050565b6200041d8262000198565b67ffffffffffffffff811115620004395762000438620001a3565b5b62000445825462000201565b6200045282828562000377565b600060209050601f8311600181146200048a576000841562000475578287015190505b620004818582620003f4565b865550620004f1565b601f1984166200049a8662000236565b60005b82811015620004c4578489015182556001820191506020850194506020810190506200049d565b86831015620004e45784890151620004e0601f891682620003d4565b8355505b6001600288020188555050505b505050505050565b613b8380620005096000396000f3fe608060405234801561001057600080fd5b50600436106101375760003560e01c806371b3a758116100b8578063b88d4fde1161007c578063b88d4fde1461033d578063c87b56dd14610359578063e59c49f514610389578063e985e9c5146103b9578063f2fde38b146103e9578063f9f411d81461040557610137565b806371b3a758146102945780638da5cb5b146102c957806395d89b41146102e75780639cc7900c14610305578063a22cb4651461032157610137565b806323b872dd116100ff57806323b872dd146101f257806342842e0e1461020e5780636352211e1461022a57806370a082311461025a578063715018a61461028a57610137565b806301ffc9a71461013c57806306fdde031461016c578063081812fc1461018a578063095ea7b3146101ba57806316a0042c146101d6575b600080fd5b610156600480360381019061015191906123ad565b610435565b60405161016391906123f5565b60405180910390f35b610174610517565b60405161018191906124a0565b60405180910390f35b6101a4600480360381019061019f91906124f8565b6105a9565b6040516101b19190612566565b60405180910390f35b6101d460048036038101906101cf91906125ad565b6105ef565b005b6101f060048036038101906101eb91906124f8565b610706565b005b61020c600480360381019061020791906125ed565b61089e565b005b610228600480360381019061022391906125ed565b6108fe565b005b610244600480360381019061023f91906124f8565b61091e565b6040516102519190612566565b60405180910390f35b610274600480360381019061026f9190612640565b6109a4565b604051610281919061267c565b60405180910390f35b610292610a5b565b005b6102ae60048036038101906102a991906124f8565b610a6f565b6040516102c096959493929190612697565b60405180910390f35b6102d1610c70565b6040516102de9190612566565b60405180910390f35b6102ef610c9a565b6040516102fc91906124a0565b60405180910390f35b61031f600480360381019061031a9190612842565b610d2c565b005b61033b6004803603810190610336919061293d565b610f37565b005b61035760048036038101906103529190612a1e565b610f4d565b005b610373600480360381019061036e91906124f8565b610faf565b60405161038091906124a0565b60405180910390f35b6103a3600480360381019061039e9190612640565b611028565b6040516103b09190612c71565b60405180910390f35b6103d360048036038101906103ce9190612c93565b6113c6565b6040516103e091906123f5565b60405180910390f35b61040360048036038101906103fe9190612640565b61145a565b005b61041f600480360381019061041a91906125ad565b6114dd565b60405161042c919061267c565b60405180910390f35b60007f80ac58cd000000000000000000000000000000000000000000000000000000007bffffffffffffffffffffffffffffffffffffffffffffffffffffffff1916827bffffffffffffffffffffffffffffffffffffffffffffffffffffffff1916148061050057507f5b5e139f000000000000000000000000000000000000000000000000000000007bffffffffffffffffffffffffffffffffffffffffffffffffffffffff1916827bffffffffffffffffffffffffffffffffffffffffffffffffffffffff1916145b80610510575061050f8261150e565b5b9050919050565b60606000805461052690612d02565b80601f016020809104026020016040519081016040528092919081815260200182805461055290612d02565b801561059f5780601f106105745761010080835404028352916020019161059f565b820191906000526020600020905b81548152906001019060200180831161058257829003601f168201915b5050505050905090565b60006105b482611578565b6004600083815260200190815260200160002060009054906101000a900473ffffffffffffffffffffffffffffffffffffffff169050919050565b60006105fa8261091e565b90508073ffffffffffffffffffffffffffffffffffffffff168373ffffffffffffffffffffffffffffffffffffffff160361066a576040517f08c379a000000000000000000000000000000000000000000000000000000000815260040161066190612da5565b60405180910390fd5b8073ffffffffffffffffffffffffffffffffffffffff166106896115c3565b73ffffffffffffffffffffffffffffffffffffffff1614806106b857506106b7816106b26115c3565b6113c6565b5b6106f7576040517f08c379a00000000000000000000000000000000000000000000000000000000081526004016106ee90612e37565b60405180910390fd5b61070183836115cb565b505050565b61070f81611684565b61074e576040517f08c379a000000000000000000000000000000000000000000000000000000000815260040161074590612ea3565b60405180910390fd5b3373ffffffffffffffffffffffffffffffffffffffff1661076e8261091e565b73ffffffffffffffffffffffffffffffffffffffff16146107c4576040517f08c379a00000000000000000000000000000000000000000000000000000000081526004016107bb90612f0f565b60405180910390fd5b6008600082815260200190815260200160002060030160009054906101000a900460ff1615610828576040517f08c379a000000000000000000000000000000000000000000000000000000000815260040161081f90612f7b565b60405180910390fd5b60016008600083815260200190815260200160002060030160006101000a81548160ff0219169083151502179055503373ffffffffffffffffffffffffffffffffffffffff16817fbdf496d41407769ff71ececae6537542760506406fb62a651e7ac685c637bd8360405160405180910390a350565b6108af6108a96115c3565b826116c5565b6108ee576040517f08c379a00000000000000000000000000000000000000000000000000000000081526004016108e59061300d565b60405180910390fd5b6108f983838361175a565b505050565b61091983838360405180602001604052806000815250610f4d565b505050565b60008061092a83611a53565b9050600073ffffffffffffffffffffffffffffffffffffffff168173ffffffffffffffffffffffffffffffffffffffff160361099b576040517f08c379a000000000000000000000000000000000000000000000000000000000815260040161099290613079565b60405180910390fd5b80915050919050565b60008073ffffffffffffffffffffffffffffffffffffffff168273ffffffffffffffffffffffffffffffffffffffff1603610a14576040517f08c379a0000000000000000000000000000000000000000000000000000000008152600401610a0b9061310b565b60405180910390fd5b600360008373ffffffffffffffffffffffffffffffffffffffff1673ffffffffffffffffffffffffffffffffffffffff168152602001908152602001600020549050919050565b610a63611a90565b610a6d6000611b0e565b565b60086020528060005260406000206000915090508060000160009054906101000a900473ffffffffffffffffffffffffffffffffffffffff1690806001018054610ab890612d02565b80601f0160208091040260200160405190810160405280929190818152602001828054610ae490612d02565b8015610b315780601f10610b0657610100808354040283529160200191610b31565b820191906000526020600020905b815481529060010190602001808311610b1457829003601f168201915b5050505050908060020154908060030160009054906101000a900460ff1690806004018054610b5f90612d02565b80601f0160208091040260200160405190810160405280929190818152602001828054610b8b90612d02565b8015610bd85780601f10610bad57610100808354040283529160200191610bd8565b820191906000526020600020905b815481529060010190602001808311610bbb57829003601f168201915b505050505090806005018054610bed90612d02565b80601f0160208091040260200160405190810160405280929190818152602001828054610c1990612d02565b8015610c665780601f10610c3b57610100808354040283529160200191610c66565b820191906000526020600020905b815481529060010190602001808311610c4957829003601f168201915b5050505050905086565b6000600660009054906101000a900473ffffffffffffffffffffffffffffffffffffffff16905090565b606060018054610ca990612d02565b80601f0160208091040260200160405190810160405280929190818152602001828054610cd590612d02565b8015610d225780601f10610cf757610100808354040283529160200191610d22565b820191906000526020600020905b815481529060010190602001808311610d0557829003601f168201915b5050505050905090565b610d366007611bd4565b6000610d426007611bea565b9050610d4e3382611bf8565b6040518060c001604052808773ffffffffffffffffffffffffffffffffffffffff168152602001868152602001858152602001600015158152602001848152602001838152506008600083815260200190815260200160002060008201518160000160006101000a81548173ffffffffffffffffffffffffffffffffffffffff021916908373ffffffffffffffffffffffffffffffffffffffff1602179055506020820151816001019081610e0391906132d7565b506040820151816002015560608201518160030160006101000a81548160ff0219169083151502179055506080820151816004019081610e4391906132d7565b5060a0820151816005019081610e5991906132d7565b50905050600960003373ffffffffffffffffffffffffffffffffffffffff1673ffffffffffffffffffffffffffffffffffffffff1681526020019081526020016000208190806001815401808255809150506001900390600052602060002001600090919091909150558573ffffffffffffffffffffffffffffffffffffffff163373ffffffffffffffffffffffffffffffffffffffff16827f2583442b75ec473d2f13ba2363beaca974b370aeeb761628a9d7d789bc7ff54a88888888604051610f2794939291906133a9565b60405180910390a4505050505050565b610f49610f426115c3565b8383611e15565b5050565b610f5e610f586115c3565b836116c5565b610f9d576040517f08c379a0000000000000000000000000000000000000000000000000000000008152600401610f949061300d565b60405180910390fd5b610fa984848484611f81565b50505050565b6060610fba82611684565b610ff9576040517f08c379a0000000000000000000000000000000000000000000000000000000008152600401610ff090612ea3565b60405180910390fd5b61100282611fdd565b60405160200161101291906134b1565b6040516020818303038152906040529050919050565b60606000600960008473ffffffffffffffffffffffffffffffffffffffff1673ffffffffffffffffffffffffffffffffffffffff1681526020019081526020016000208054806020026020016040519081016040528092919081815260200182805480156110b557602002820191906000526020600020905b8154815260200190600101908083116110a1575b505050505090506000815167ffffffffffffffff8111156110d9576110d8612717565b5b60405190808252806020026020018201604052801561111257816020015b6110ff6122f3565b8152602001906001900390816110f75790505b50905060005b82518110156113bb5760086000848381518110611138576111376134d3565b5b602002602001015181526020019081526020016000206040518060c00160405290816000820160009054906101000a900473ffffffffffffffffffffffffffffffffffffffff1673ffffffffffffffffffffffffffffffffffffffff1673ffffffffffffffffffffffffffffffffffffffff1681526020016001820180546111bf90612d02565b80601f01602080910402602001604051908101604052809291908181526020018280546111eb90612d02565b80156112385780601f1061120d57610100808354040283529160200191611238565b820191906000526020600020905b81548152906001019060200180831161121b57829003601f168201915b50505050508152602001600282015481526020016003820160009054906101000a900460ff1615151515815260200160048201805461127690612d02565b80601f01602080910402602001604051908101604052809291908181526020018280546112a290612d02565b80156112ef5780601f106112c4576101008083540402835291602001916112ef565b820191906000526020600020905b8154815290600101906020018083116112d257829003601f168201915b5050505050815260200160058201805461130890612d02565b80601f016020809104026020016040519081016040528092919081815260200182805461133490612d02565b80156113815780601f1061135657610100808354040283529160200191611381565b820191906000526020600020905b81548152906001019060200180831161136457829003601f168201915b50505050508152505082828151811061139d5761139c6134d3565b5b602002602001018190525080806113b390613531565b915050611118565b508092505050919050565b6000600560008473ffffffffffffffffffffffffffffffffffffffff1673ffffffffffffffffffffffffffffffffffffffff16815260200190815260200160002060008373ffffffffffffffffffffffffffffffffffffffff1673ffffffffffffffffffffffffffffffffffffffff16815260200190815260200160002060009054906101000a900460ff16905092915050565b611462611a90565b600073ffffffffffffffffffffffffffffffffffffffff168173ffffffffffffffffffffffffffffffffffffffff16036114d1576040517f08c379a00000000000000000000000000000000000000000000000000000000081526004016114c8906135eb565b60405180910390fd5b6114da81611b0e565b50565b600960205281600052604060002081815481106114f957600080fd5b90600052602060002001600091509150505481565b60007f01ffc9a7000000000000000000000000000000000000000000000000000000007bffffffffffffffffffffffffffffffffffffffffffffffffffffffff1916827bffffffffffffffffffffffffffffffffffffffffffffffffffffffff1916149050919050565b61158181611684565b6115c0576040517f08c379a00000000000000000000000000000000000000000000000000000000081526004016115b790613079565b60405180910390fd5b50565b600033905090565b816004600083815260200190815260200160002060006101000a81548173ffffffffffffffffffffffffffffffffffffffff021916908373ffffffffffffffffffffffffffffffffffffffff160217905550808273ffffffffffffffffffffffffffffffffffffffff1661163e8361091e565b73ffffffffffffffffffffffffffffffffffffffff167f8c5be1e5ebec7d5bd14f71427d1e84f3dd0314c0f7b2291e5b200ac8c7c3b92560405160405180910390a45050565b60008073ffffffffffffffffffffffffffffffffffffffff166116a683611a53565b73ffffffffffffffffffffffffffffffffffffffff1614159050919050565b6000806116d18361091e565b90508073ffffffffffffffffffffffffffffffffffffffff168473ffffffffffffffffffffffffffffffffffffffff161480611713575061171281856113c6565b5b8061175157508373ffffffffffffffffffffffffffffffffffffffff16611739846105a9565b73ffffffffffffffffffffffffffffffffffffffff16145b91505092915050565b8273ffffffffffffffffffffffffffffffffffffffff1661177a8261091e565b73ffffffffffffffffffffffffffffffffffffffff16146117d0576040517f08c379a00000000000000000000000000000000000000000000000000000000081526004016117c79061367d565b60405180910390fd5b600073ffffffffffffffffffffffffffffffffffffffff168273ffffffffffffffffffffffffffffffffffffffff160361183f576040517f08c379a00000000000000000000000000000000000000000000000000000000081526004016118369061370f565b60405180910390fd5b61184c838383600161213d565b8273ffffffffffffffffffffffffffffffffffffffff1661186c8261091e565b73ffffffffffffffffffffffffffffffffffffffff16146118c2576040517f08c379a00000000000000000000000000000000000000000000000000000000081526004016118b99061367d565b60405180910390fd5b6004600082815260200190815260200160002060006101000a81549073ffffffffffffffffffffffffffffffffffffffff02191690556001600360008573ffffffffffffffffffffffffffffffffffffffff1673ffffffffffffffffffffffffffffffffffffffff168152602001908152602001600020600082825403925050819055506001600360008473ffffffffffffffffffffffffffffffffffffffff1673ffffffffffffffffffffffffffffffffffffffff16815260200190815260200160002060008282540192505081905550816002600083815260200190815260200160002060006101000a81548173ffffffffffffffffffffffffffffffffffffffff021916908373ffffffffffffffffffffffffffffffffffffffff160217905550808273ffffffffffffffffffffffffffffffffffffffff168473ffffffffffffffffffffffffffffffffffffffff167fddf252ad1be2c89b69c2b068fc378daa952ba7f163c4a11628f55a4df523b3ef60405160405180910390a4611a4e8383836001612143565b505050565b60006002600083815260200190815260200160002060009054906101000a900473ffffffffffffffffffffffffffffffffffffffff169050919050565b611a986115c3565b73ffffffffffffffffffffffffffffffffffffffff16611ab6610c70565b73ffffffffffffffffffffffffffffffffffffffff1614611b0c576040517f08c379a0000000000000000000000000000000000000000000000000000000008152600401611b039061377b565b60405180910390fd5b565b6000600660009054906101000a900473ffffffffffffffffffffffffffffffffffffffff16905081600660006101000a81548173ffffffffffffffffffffffffffffffffffffffff021916908373ffffffffffffffffffffffffffffffffffffffff1602179055508173ffffffffffffffffffffffffffffffffffffffff168173ffffffffffffffffffffffffffffffffffffffff167f8be0079c531659141344cd1fd0a4f28419497f9722a3daafe3b4186f6b6457e060405160405180910390a35050565b6001816000016000828254019250508190555050565b600081600001549050919050565b600073ffffffffffffffffffffffffffffffffffffffff168273ffffffffffffffffffffffffffffffffffffffff1603611c67576040517f08c379a0000000000000000000000000000000000000000000000000000000008152600401611c5e906137e7565b60405180910390fd5b611c7081611684565b15611cb0576040517f08c379a0000000000000000000000000000000000000000000000000000000008152600401611ca790613853565b60405180910390fd5b611cbe60008383600161213d565b611cc781611684565b15611d07576040517f08c379a0000000000000000000000000000000000000000000000000000000008152600401611cfe90613853565b60405180910390fd5b6001600360008473ffffffffffffffffffffffffffffffffffffffff1673ffffffffffffffffffffffffffffffffffffffff16815260200190815260200160002060008282540192505081905550816002600083815260200190815260200160002060006101000a81548173ffffffffffffffffffffffffffffffffffffffff021916908373ffffffffffffffffffffffffffffffffffffffff160217905550808273ffffffffffffffffffffffffffffffffffffffff16600073ffffffffffffffffffffffffffffffffffffffff167fddf252ad1be2c89b69c2b068fc378daa952ba7f163c4a11628f55a4df523b3ef60405160405180910390a4611e11600083836001612143565b5050565b8173ffffffffffffffffffffffffffffffffffffffff168373ffffffffffffffffffffffffffffffffffffffff1603611e83576040517f08c379a0000000000000000000000000000000000000000000000000000000008152600401611e7a906138bf565b60405180910390fd5b80600560008573ffffffffffffffffffffffffffffffffffffffff1673ffffffffffffffffffffffffffffffffffffffff16815260200190815260200160002060008473ffffffffffffffffffffffffffffffffffffffff1673ffffffffffffffffffffffffffffffffffffffff16815260200190815260200160002060006101000a81548160ff0219169083151502179055508173ffffffffffffffffffffffffffffffffffffffff168373ffffffffffffffffffffffffffffffffffffffff167f17307eab39ab6107e8899845ad3d59bd9653f200f220920489ca2b5937696c3183604051611f7491906123f5565b60405180910390a3505050565b611f8c84848461175a565b611f9884848484612149565b611fd7576040517f08c379a0000000000000000000000000000000000000000000000000000000008152600401611fce90613951565b60405180910390fd5b50505050565b606060008203612024576040518060400160405280600181526020017f30000000000000000000000000000000000000000000000000000000000000008152509050612138565b600082905060005b6000821461205657808061203f90613531565b915050600a8261204f91906139a0565b915061202c565b60008167ffffffffffffffff81111561207257612071612717565b5b6040519080825280601f01601f1916602001820160405280156120a45781602001600182028036833780820191505090505b5090505b60008514612131576001826120bd91906139d1565b9150600a856120cc9190613a05565b60306120d89190613a36565b60f81b8183815181106120ee576120ed6134d3565b5b60200101907effffffffffffffffffffffffffffffffffffffffffffffffffffffffffffff1916908160001a905350600a8561212a91906139a0565b94506120a8565b8093505050505b919050565b50505050565b50505050565b600061216a8473ffffffffffffffffffffffffffffffffffffffff166122d0565b156122c3578373ffffffffffffffffffffffffffffffffffffffff1663150b7a026121936115c3565b8786866040518563ffffffff1660e01b81526004016121b59493929190613abf565b6020604051808303816000875af19250505080156121f157506040513d601f19601f820116820180604052508101906121ee9190613b20565b60015b612273573d8060008114612221576040519150601f19603f3d011682016040523d82523d6000602084013e612226565b606091505b50600081510361226b576040517f08c379a000000000000000000000000000000000000000000000000000000000815260040161226290613951565b60405180910390fd5b805181602001fd5b63150b7a0260e01b7bffffffffffffffffffffffffffffffffffffffffffffffffffffffff1916817bffffffffffffffffffffffffffffffffffffffffffffffffffffffff1916149150506122c8565b600190505b949350505050565b6000808273ffffffffffffffffffffffffffffffffffffffff163b119050919050565b6040518060c00160405280600073ffffffffffffffffffffffffffffffffffffffff168152602001606081526020016000815260200160001515815260200160608152602001606081525090565b6000604051905090565b600080fd5b600080fd5b60007fffffffff0000000000000000000000000000000000000000000000000000000082169050919050565b61238a81612355565b811461239557600080fd5b50565b6000813590506123a781612381565b92915050565b6000602082840312156123c3576123c261234b565b5b60006123d184828501612398565b91505092915050565b60008115159050919050565b6123ef816123da565b82525050565b600060208201905061240a60008301846123e6565b92915050565b600081519050919050565b600082825260208201905092915050565b60005b8381101561244a57808201518184015260208101905061242f565b60008484015250505050565b6000601f19601f8301169050919050565b600061247282612410565b61247c818561241b565b935061248c81856020860161242c565b61249581612456565b840191505092915050565b600060208201905081810360008301526124ba8184612467565b905092915050565b6000819050919050565b6124d5816124c2565b81146124e057600080fd5b50565b6000813590506124f2816124cc565b92915050565b60006020828403121561250e5761250d61234b565b5b600061251c848285016124e3565b91505092915050565b600073ffffffffffffffffffffffffffffffffffffffff82169050919050565b600061255082612525565b9050919050565b61256081612545565b82525050565b600060208201905061257b6000830184612557565b92915050565b61258a81612545565b811461259557600080fd5b50565b6000813590506125a781612581565b92915050565b600080604083850312156125c4576125c361234b565b5b60006125d285828601612598565b92505060206125e3858286016124e3565b9150509250929050565b6000806000606084860312156126065761260561234b565b5b600061261486828701612598565b935050602061262586828701612598565b9250506040612636868287016124e3565b9150509250925092565b6000602082840312156126565761265561234b565b5b600061266484828501612598565b91505092915050565b612676816124c2565b82525050565b6000602082019050612691600083018461266d565b92915050565b600060c0820190506126ac6000830189612557565b81810360208301526126be8188612467565b90506126cd604083018761266d565b6126da60608301866123e6565b81810360808301526126ec8185612467565b905081810360a08301526127008184612467565b9050979650505050505050565b600080fd5b600080fd5b7f4e487b7100000000000000000000000000000000000000000000000000000000600052604160045260246000fd5b61274f82612456565b810181811067ffffffffffffffff8211171561276e5761276d612717565b5b80604052505050565b6000612781612341565b905061278d8282612746565b919050565b600067ffffffffffffffff8211156127ad576127ac612717565b5b6127b682612456565b9050602081019050919050565b82818337600083830152505050565b60006127e56127e084612792565b612777565b90508281526020810184848401111561280157612800612712565b5b61280c8482856127c3565b509392505050565b600082601f8301126128295761282861270d565b5b81356128398482602086016127d2565b91505092915050565b600080600080600060a0868803121561285e5761285d61234b565b5b600061286c88828901612598565b955050602086013567ffffffffffffffff81111561288d5761288c612350565b5b61289988828901612814565b94505060406128aa888289016124e3565b935050606086013567ffffffffffffffff8111156128cb576128ca612350565b5b6128d788828901612814565b925050608086013567ffffffffffffffff8111156128f8576128f7612350565b5b61290488828901612814565b9150509295509295909350565b61291a816123da565b811461292557600080fd5b50565b60008135905061293781612911565b92915050565b600080604083850312156129545761295361234b565b5b600061296285828601612598565b925050602061297385828601612928565b9150509250929050565b600067ffffffffffffffff82111561299857612997612717565b5b6129a182612456565b9050602081019050919050565b60006129c16129bc8461297d565b612777565b9050828152602081018484840111156129dd576129dc612712565b5b6129e88482856127c3565b509392505050565b600082601f830112612a0557612a0461270d565b5b8135612a158482602086016129ae565b91505092915050565b60008060008060808587031215612a3857612a3761234b565b5b6000612a4687828801612598565b9450506020612a5787828801612598565b9350506040612a68878288016124e3565b925050606085013567ffffffffffffffff811115612a8957612a88612350565b5b612a95878288016129f0565b91505092959194509250565b600081519050919050565b600082825260208201905092915050565b6000819050602082019050919050565b612ad681612545565b82525050565b600082825260208201905092915050565b6000612af882612410565b612b028185612adc565b9350612b1281856020860161242c565b612b1b81612456565b840191505092915050565b612b2f816124c2565b82525050565b612b3e816123da565b82525050565b600060c083016000830151612b5c6000860182612acd565b5060208301518482036020860152612b748282612aed565b9150506040830151612b896040860182612b26565b506060830151612b9c6060860182612b35565b5060808301518482036080860152612bb48282612aed565b91505060a083015184820360a0860152612bce8282612aed565b9150508091505092915050565b6000612be78383612b44565b905092915050565b6000602082019050919050565b6000612c0782612aa1565b612c118185612aac565b935083602082028501612c2385612abd565b8060005b85811015612c5f5784840389528151612c408582612bdb565b9450612c4b83612bef565b925060208a01995050600181019050612c27565b50829750879550505050505092915050565b60006020820190508181036000830152612c8b8184612bfc565b905092915050565b60008060408385031215612caa57612ca961234b565b5b6000612cb885828601612598565b9250506020612cc985828601612598565b9150509250929050565b7f4e487b7100000000000000000000000000000000000000000000000000000000600052602260045260246000fd5b60006002820490506001821680612d1a57607f821691505b602082108103612d2d57612d2c612cd3565b5b50919050565b7f4552433732313a20617070726f76616c20746f2063757272656e74206f776e6560008201527f7200000000000000000000000000000000000000000000000000000000000000602082015250565b6000612d8f60218361241b565b9150612d9a82612d33565b604082019050919050565b60006020820190508181036000830152612dbe81612d82565b9050919050565b7f4552433732313a20617070726f76652063616c6c6572206973206e6f7420746f60008201527f6b656e206f776e6572206f7220617070726f76656420666f7220616c6c000000602082015250565b6000612e21603d8361241b565b9150612e2c82612dc5565b604082019050919050565b60006020820190508181036000830152612e5081612e14565b9050919050565b7f546f6b656e20646f6573206e6f74206578697374000000000000000000000000600082015250565b6000612e8d60148361241b565b9150612e9882612e57565b602082019050919050565b60006020820190508181036000830152612ebc81612e80565b9050919050565b7f4e6f742074686520746f6b656e206f776e657200000000000000000000000000600082015250565b6000612ef960138361241b565b9150612f0482612ec3565b602082019050919050565b60006020820190508181036000830152612f2881612eec565b9050919050565b7f416c7265616479207265766f6b65640000000000000000000000000000000000600082015250565b6000612f65600f8361241b565b9150612f7082612f2f565b602082019050919050565b60006020820190508181036000830152612f9481612f58565b9050919050565b7f4552433732313a2063616c6c6572206973206e6f7420746f6b656e206f776e6560008201527f72206f7220617070726f76656400000000000000000000000000000000000000602082015250565b6000612ff7602d8361241b565b915061300282612f9b565b604082019050919050565b6000602082019050818103600083015261302681612fea565b9050919050565b7f4552433732313a20696e76616c696420746f6b656e2049440000000000000000600082015250565b600061306360188361241b565b915061306e8261302d565b602082019050919050565b6000602082019050818103600083015261309281613056565b9050919050565b7f4552433732313a2061646472657373207a65726f206973206e6f74206120766160008201527f6c6964206f776e65720000000000000000000000000000000000000000000000602082015250565b60006130f560298361241b565b915061310082613099565b604082019050919050565b60006020820190508181036000830152613124816130e8565b9050919050565b60008190508160005260206000209050919050565b60006020601f8301049050919050565b600082821b905092915050565b60006008830261318d7fffffffffffffffffffffffffffffffffffffffffffffffffffffffffffffffff82613150565b6131978683613150565b95508019841693508086168417925050509392505050565b6000819050919050565b60006131d46131cf6131ca846124c2565b6131af565b6124c2565b9050919050565b6000819050919050565b6131ee836131b9565b6132026131fa826131db565b84845461315d565b825550505050565b600090565b61321761320a565b6132228184846131e5565b505050565b5b818110156132465761323b60008261320f565b600181019050613228565b5050565b601f82111561328b5761325c8161312b565b61326584613140565b81016020851015613274578190505b61328861328085613140565b830182613227565b50505b505050565b600082821c905092915050565b60006132ae60001984600802613290565b1980831691505092915050565b60006132c7838361329d565b9150826002028217905092915050565b6132e082612410565b67ffffffffffffffff8111156132f9576132f8612717565b5b6133038254612d02565b61330e82828561324a565b600060209050601f831160018114613341576000841561332f578287015190505b61333985826132bb565b8655506133a1565b601f19841661334f8661312b565b60005b8281101561337757848901518255600182019150602085019450602081019050613352565b868310156133945784890151613390601f89168261329d565b8355505b6001600288020188555050505b505050505050565b600060808201905081810360008301526133c38187612467565b90506133d2602083018661266d565b81810360408301526133e48185612467565b905081810360608301526133f88184612467565b905095945050505050565b600081905092915050565b7f68747470733a2f2f6170692e636f6e73656e7477616c6c65742e636f6d2f746f60008201527f6b656e2f00000000000000000000000000000000000000000000000000000000602082015250565b600061346a602483613403565b91506134758261340e565b602482019050919050565b600061348b82612410565b6134958185613403565b93506134a581856020860161242c565b80840191505092915050565b60006134bc8261345d565b91506134c88284613480565b915081905092915050565b7f4e487b7100000000000000000000000000000000000000000000000000000000600052603260045260246000fd5b7f4e487b7100000000000000000000000000000000000000000000000000000000600052601160045260246000fd5b600061353c826124c2565b91507fffffffffffffffffffffffffffffffffffffffffffffffffffffffffffffffff820361356e5761356d613502565b5b600182019050919050565b7f4f776e61626c653a206e6577206f776e657220697320746865207a65726f206160008201527f6464726573730000000000000000000000000000000000000000000000000000602082015250565b60006135d560268361241b565b91506135e082613579565b604082019050919050565b60006020820190508181036000830152613604816135c8565b9050919050565b7f4552433732313a207472616e736665722066726f6d20696e636f72726563742060008201527f6f776e6572000000000000000000000000000000000000000000000000000000602082015250565b600061366760258361241b565b91506136728261360b565b604082019050919050565b600060208201905081810360008301526136968161365a565b9050919050565b7f4552433732313a207472616e7366657220746f20746865207a65726f2061646460008201527f7265737300000000000000000000000000000000000000000000000000000000602082015250565b60006136f960248361241b565b91506137048261369d565b604082019050919050565b60006020820190508181036000830152613728816136ec565b9050919050565b7f4f776e61626c653a2063616c6c6572206973206e6f7420746865206f776e6572600082015250565b600061376560208361241b565b91506137708261372f565b602082019050919050565b6000602082019050818103600083015261379481613758565b9050919050565b7f4552433732313a206d696e7420746f20746865207a65726f2061646472657373600082015250565b60006137d160208361241b565b91506137dc8261379b565b602082019050919050565b60006020820190508181036000830152613800816137c4565b9050919050565b7f4552433732313a20746f6b656e20616c7265616479206d696e74656400000000600082015250565b600061383d601c8361241b565b915061384882613807565b602082019050919050565b6000602082019050818103600083015261386c81613830565b9050919050565b7f4552433732313a20617070726f766520746f2063616c6c657200000000000000600082015250565b60006138a960198361241b565b91506138b482613873565b602082019050919050565b600060208201905081810360008301526138d88161389c565b9050919050565b7f4552433732313a207472616e7366657220746f206e6f6e20455243373231526560008201527f63656976657220696d706c656d656e7465720000000000000000000000000000602082015250565b600061393b60328361241b565b9150613946826138df565b604082019050919050565b6000602082019050818103600083015261396a8161392e565b9050919050565b7f4e487b7100000000000000000000000000000000000000000000000000000000600052601260045260246000fd5b60006139ab826124c2565b91506139b6836124c2565b9250826139c6576139c5613971565b5b828204905092915050565b60006139dc826124c2565b91506139e7836124c2565b92508282039050818111156139ff576139fe613502565b5b92915050565b6000613a10826124c2565b9150613a1b836124c2565b925082613a2b57613a2a613971565b5b828206905092915050565b6000613a41826124c2565b9150613a4c836124c2565b9250828201905080821115613a6457613a63613502565b5b92915050565b600081519050919050565b600082825260208201905092915050565b6000613a9182613a6a565b613a9b8185613a75565b9350613aab81856020860161242c565b613ab481612456565b840191505092915050565b6000608082019050613ad46000830187612557565b613ae16020830186612557565b613aee604083018561266d565b8181036060830152613b008184613a86565b905095945050505050565b600081519050613b1a81612381565b92915050565b600060208284031215613b3657613b3561234b565b5b6000613b4484828501613b0b565b9150509291505056fea264697066735822122035269b52a3c5835171ceda829cd6459940aad95a2c1e8219b82dcf841dc0eb5664736f6c63430008140033",
  "linkReferences": {},
  "deployedLinkReferences": {}
}